{
    "contractName": "NFTLocked",
    "abi": [
        {
            "inputs": [],
            "stateMutability": "nonpayable",
            "type": "constructor"
        },
        {
            "inputs": [
                {
                    "internalType": "address",
                    "name": "sender",
                    "type": "address"
                },
                {
                    "internalType": "uint256",
                    "name": "balance",
                    "type": "uint256"
                },
                {
                    "internalType": "uint256",
                    "name": "needed",
                    "type": "uint256"
                },
                {
                    "internalType": "uint256",
                    "name": "tokenId",
                    "type": "uint256"
                }
            ],
            "name": "ERC1155InsufficientBalance",
            "type": "error"
        },
        {
            "inputs": [
                {
                    "internalType": "address",
                    "name": "approver",
                    "type": "address"
                }
            ],
            "name": "ERC1155InvalidApprover",
            "type": "error"
        },
        {
            "inputs": [
                {
                    "internalType": "uint256",
                    "name": "idsLength",
                    "type": "uint256"
                },
                {
                    "internalType": "uint256",
                    "name": "valuesLength",
                    "type": "uint256"
                }
            ],
            "name": "ERC1155InvalidArrayLength",
            "type": "error"
        },
        {
            "inputs": [
                {
                    "internalType": "address",
                    "name": "operator",
                    "type": "address"
                }
            ],
            "name": "ERC1155InvalidOperator",
            "type": "error"
        },
        {
            "inputs": [
                {
                    "internalType": "address",
                    "name": "receiver",
                    "type": "address"
                }
            ],
            "name": "ERC1155InvalidReceiver",
            "type": "error"
        },
        {
            "inputs": [
                {
                    "internalType": "address",
                    "name": "sender",
                    "type": "address"
                }
            ],
            "name": "ERC1155InvalidSender",
            "type": "error"
        },
        {
            "inputs": [
                {
                    "internalType": "address",
                    "name": "operator",
                    "type": "address"
                },
                {
                    "internalType": "address",
                    "name": "owner",
                    "type": "address"
                }
            ],
            "name": "ERC1155MissingApprovalForAll",
            "type": "error"
        },
        {
            "inputs": [
                {
                    "internalType": "address",
                    "name": "spender",
                    "type": "address"
                },
                {
                    "internalType": "uint256",
                    "name": "allowance",
                    "type": "uint256"
                },
                {
                    "internalType": "uint256",
                    "name": "needed",
                    "type": "uint256"
                }
            ],
            "name": "ERC20InsufficientAllowance",
            "type": "error"
        },
        {
            "inputs": [
                {
                    "internalType": "address",
                    "name": "sender",
                    "type": "address"
                },
                {
                    "internalType": "uint256",
                    "name": "balance",
                    "type": "uint256"
                },
                {
                    "internalType": "uint256",
                    "name": "needed",
                    "type": "uint256"
                }
            ],
            "name": "ERC20InsufficientBalance",
            "type": "error"
        },
        {
            "inputs": [
                {
                    "internalType": "address",
                    "name": "approver",
                    "type": "address"
                }
            ],
            "name": "ERC20InvalidApprover",
            "type": "error"
        },
        {
            "inputs": [
                {
                    "internalType": "address",
                    "name": "receiver",
                    "type": "address"
                }
            ],
            "name": "ERC20InvalidReceiver",
            "type": "error"
        },
        {
            "inputs": [
                {
                    "internalType": "address",
                    "name": "sender",
                    "type": "address"
                }
            ],
            "name": "ERC20InvalidSender",
            "type": "error"
        },
        {
            "inputs": [
                {
                    "internalType": "address",
                    "name": "spender",
                    "type": "address"
                }
            ],
            "name": "ERC20InvalidSpender",
            "type": "error"
        },
        {
            "inputs": [
                {
                    "internalType": "address",
                    "name": "owner",
                    "type": "address"
                }
            ],
            "name": "OwnableInvalidOwner",
            "type": "error"
        },
        {
            "inputs": [
                {
                    "internalType": "address",
                    "name": "account",
                    "type": "address"
                }
            ],
            "name": "OwnableUnauthorizedAccount",
            "type": "error"
        },
        {
            "anonymous": false,
            "inputs": [
                {
                    "indexed": true,
                    "internalType": "address",
                    "name": "owner",
                    "type": "address"
                },
                {
                    "indexed": true,
                    "internalType": "address",
                    "name": "spender",
                    "type": "address"
                },
                {
                    "indexed": false,
                    "internalType": "uint256",
                    "name": "value",
                    "type": "uint256"
                }
            ],
            "name": "Approval",
            "type": "event"
        },
        {
            "anonymous": false,
            "inputs": [
                {
                    "indexed": true,
                    "internalType": "address",
                    "name": "account",
                    "type": "address"
                },
                {
                    "indexed": true,
                    "internalType": "address",
                    "name": "operator",
                    "type": "address"
                },
                {
                    "indexed": false,
                    "internalType": "bool",
                    "name": "approved",
                    "type": "bool"
                }
            ],
            "name": "ApprovalForAll",
            "type": "event"
        },
        {
            "anonymous": false,
            "inputs": [
                {
                    "indexed": true,
                    "internalType": "address",
                    "name": "previousOwner",
                    "type": "address"
                },
                {
                    "indexed": true,
                    "internalType": "address",
                    "name": "newOwner",
                    "type": "address"
                }
            ],
            "name": "OwnershipTransferred",
            "type": "event"
        },
        {
            "anonymous": false,
            "inputs": [
                {
                    "indexed": true,
                    "internalType": "address",
                    "name": "from",
                    "type": "address"
                },
                {
                    "indexed": true,
                    "internalType": "address",
                    "name": "to",
                    "type": "address"
                },
                {
                    "indexed": false,
                    "internalType": "uint256",
                    "name": "value",
                    "type": "uint256"
                }
            ],
            "name": "Transfer",
            "type": "event"
        },
        {
            "anonymous": false,
            "inputs": [
                {
                    "indexed": true,
                    "internalType": "address",
                    "name": "operator",
                    "type": "address"
                },
                {
                    "indexed": true,
                    "internalType": "address",
                    "name": "from",
                    "type": "address"
                },
                {
                    "indexed": true,
                    "internalType": "address",
                    "name": "to",
                    "type": "address"
                },
                {
                    "indexed": false,
                    "internalType": "uint256[]",
                    "name": "ids",
                    "type": "uint256[]"
                },
                {
                    "indexed": false,
                    "internalType": "uint256[]",
                    "name": "values",
                    "type": "uint256[]"
                }
            ],
            "name": "TransferBatch",
            "type": "event"
        },
        {
            "anonymous": false,
            "inputs": [
                {
                    "indexed": true,
                    "internalType": "address",
                    "name": "operator",
                    "type": "address"
                },
                {
                    "indexed": true,
                    "internalType": "address",
                    "name": "from",
                    "type": "address"
                },
                {
                    "indexed": true,
                    "internalType": "address",
                    "name": "to",
                    "type": "address"
                },
                {
                    "indexed": false,
                    "internalType": "uint256",
                    "name": "id",
                    "type": "uint256"
                },
                {
                    "indexed": false,
                    "internalType": "uint256",
                    "name": "value",
                    "type": "uint256"
                }
            ],
            "name": "TransferSingle",
            "type": "event"
        },
        {
            "anonymous": false,
            "inputs": [
                {
                    "indexed": false,
                    "internalType": "string",
                    "name": "value",
                    "type": "string"
                },
                {
                    "indexed": true,
                    "internalType": "uint256",
                    "name": "id",
                    "type": "uint256"
                }
            ],
            "name": "URI",
            "type": "event"
        },
        {
            "anonymous": false,
            "inputs": [
                {
                    "indexed": true,
                    "internalType": "address",
                    "name": "user",
                    "type": "address"
                },
                {
                    "indexed": false,
                    "internalType": "enum NFTLocked.NFTType",
                    "name": "nftType",
                    "type": "uint8"
                },
                {
                    "indexed": false,
                    "internalType": "uint256[]",
                    "name": "tier",
                    "type": "uint256[]"
                }
            ],
            "name": "UserRegistered",
            "type": "event"
        },
        {
            "inputs": [
                {
                    "internalType": "address",
                    "name": "owner",
                    "type": "address"
                },
                {
                    "internalType": "address",
                    "name": "spender",
                    "type": "address"
                }
            ],
            "name": "allowance",
            "outputs": [
                {
                    "internalType": "uint256",
                    "name": "",
                    "type": "uint256"
                }
            ],
            "stateMutability": "view",
            "type": "function"
        },
        {
            "inputs": [
                {
                    "internalType": "address",
                    "name": "spender",
                    "type": "address"
                },
                {
                    "internalType": "uint256",
                    "name": "value",
                    "type": "uint256"
                }
            ],
            "name": "approve",
            "outputs": [
                {
                    "internalType": "bool",
                    "name": "",
                    "type": "bool"
                }
            ],
            "stateMutability": "nonpayable",
            "type": "function"
        },
        {
            "inputs": [
                {
                    "internalType": "address",
                    "name": "account",
                    "type": "address"
                },
                {
                    "internalType": "uint256",
                    "name": "id",
                    "type": "uint256"
                }
            ],
            "name": "balanceOf",
            "outputs": [
                {
                    "internalType": "uint256",
                    "name": "",
                    "type": "uint256"
                }
            ],
            "stateMutability": "view",
            "type": "function"
        },
        {
            "inputs": [
                {
                    "internalType": "address",
                    "name": "account",
                    "type": "address"
                }
            ],
            "name": "balanceOf",
            "outputs": [
                {
                    "internalType": "uint256",
                    "name": "",
                    "type": "uint256"
                }
            ],
            "stateMutability": "view",
            "type": "function"
        },
        {
            "inputs": [
                {
                    "internalType": "address[]",
                    "name": "accounts",
                    "type": "address[]"
                },
                {
                    "internalType": "uint256[]",
                    "name": "ids",
                    "type": "uint256[]"
                }
            ],
            "name": "balanceOfBatch",
            "outputs": [
                {
                    "internalType": "uint256[]",
                    "name": "",
                    "type": "uint256[]"
                }
            ],
            "stateMutability": "view",
            "type": "function"
        },
        {
            "inputs": [],
            "name": "decimals",
            "outputs": [
                {
                    "internalType": "uint8",
                    "name": "",
                    "type": "uint8"
                }
            ],
            "stateMutability": "view",
            "type": "function"
        },
        {
            "inputs": [
                {
                    "internalType": "uint256",
                    "name": "tierId",
                    "type": "uint256"
                }
            ],
            "name": "endTier",
            "outputs": [],
            "stateMutability": "nonpayable",
            "type": "function"
        },
        {
            "inputs": [
                {
                    "internalType": "address",
                    "name": "account",
                    "type": "address"
                },
                {
                    "internalType": "address",
                    "name": "operator",
                    "type": "address"
                }
            ],
            "name": "isApprovedForAll",
            "outputs": [
                {
                    "internalType": "bool",
                    "name": "",
                    "type": "bool"
                }
            ],
            "stateMutability": "view",
            "type": "function"
        },
        {
            "inputs": [
                {
                    "internalType": "address",
                    "name": "",
                    "type": "address"
                }
            ],
            "name": "isRegistered",
            "outputs": [
                {
                    "internalType": "bool",
                    "name": "",
                    "type": "bool"
                }
            ],
            "stateMutability": "view",
            "type": "function"
        },
        {
            "inputs": [
                {
                    "internalType": "address",
                    "name": "_user",
                    "type": "address"
                }
            ],
            "name": "isUserRegistered",
            "outputs": [
                {
                    "internalType": "bool",
                    "name": "",
                    "type": "bool"
                }
            ],
            "stateMutability": "view",
            "type": "function"
        },
        {
            "inputs": [
                {
                    "internalType": "uint256",
                    "name": "amount",
                    "type": "uint256"
                }
            ],
            "name": "mint",
            "outputs": [],
            "stateMutability": "nonpayable",
            "type": "function"
        },
        {
            "inputs": [],
            "name": "name",
            "outputs": [
                {
                    "internalType": "string",
                    "name": "",
                    "type": "string"
                }
            ],
            "stateMutability": "view",
            "type": "function"
        },
        {
            "inputs": [],
            "name": "owner",
            "outputs": [
                {
                    "internalType": "address",
                    "name": "",
                    "type": "address"
                }
            ],
            "stateMutability": "view",
            "type": "function"
        },
        {
            "inputs": [
                {
                    "internalType": "enum NFTLocked.NFTType",
                    "name": "_nftType",
                    "type": "uint8"
                },
                {
                    "internalType": "uint256",
                    "name": "_amount",
                    "type": "uint256"
                }
            ],
            "name": "purchaseNFT",
            "outputs": [],
            "stateMutability": "payable",
            "type": "function"
        },
        {
            "inputs": [],
            "name": "redeem",
            "outputs": [],
            "stateMutability": "nonpayable",
            "type": "function"
        },
        {
            "inputs": [
                {
                    "internalType": "address",
                    "name": "_user",
                    "type": "address"
                },
                {
                    "internalType": "enum NFTLocked.NFTType",
                    "name": "_nftType",
                    "type": "uint8"
                },
                {
                    "internalType": "uint256[]",
                    "name": "_tier",
                    "type": "uint256[]"
                }
            ],
            "name": "registerUser",
            "outputs": [],
            "stateMutability": "nonpayable",
            "type": "function"
        },
        {
            "inputs": [
                {
                    "internalType": "address",
                    "name": "_user",
                    "type": "address"
                }
            ],
            "name": "removeWhitelist",
            "outputs": [],
            "stateMutability": "nonpayable",
            "type": "function"
        },
        {
            "inputs": [],
            "name": "renounceOwnership",
            "outputs": [],
            "stateMutability": "nonpayable",
            "type": "function"
        },
        {
            "inputs": [
                {
                    "internalType": "address",
                    "name": "from",
                    "type": "address"
                },
                {
                    "internalType": "address",
                    "name": "to",
                    "type": "address"
                },
                {
                    "internalType": "uint256[]",
                    "name": "ids",
                    "type": "uint256[]"
                },
                {
                    "internalType": "uint256[]",
                    "name": "values",
                    "type": "uint256[]"
                },
                {
                    "internalType": "bytes",
                    "name": "data",
                    "type": "bytes"
                }
            ],
            "name": "safeBatchTransferFrom",
            "outputs": [],
            "stateMutability": "nonpayable",
            "type": "function"
        },
        {
            "inputs": [
                {
                    "internalType": "address",
                    "name": "from",
                    "type": "address"
                },
                {
                    "internalType": "address",
                    "name": "to",
                    "type": "address"
                },
                {
                    "internalType": "uint256",
                    "name": "id",
                    "type": "uint256"
                },
                {
                    "internalType": "uint256",
                    "name": "value",
                    "type": "uint256"
                },
                {
                    "internalType": "bytes",
                    "name": "data",
                    "type": "bytes"
                }
            ],
            "name": "safeTransferFrom",
            "outputs": [],
            "stateMutability": "nonpayable",
            "type": "function"
        },
        {
            "inputs": [
                {
                    "internalType": "address",
                    "name": "operator",
                    "type": "address"
                },
                {
                    "internalType": "bool",
                    "name": "approved",
                    "type": "bool"
                }
            ],
            "name": "setApprovalForAll",
            "outputs": [],
            "stateMutability": "nonpayable",
            "type": "function"
        },
        {
            "inputs": [
                {
                    "internalType": "string",
                    "name": "newuri",
                    "type": "string"
                }
            ],
            "name": "setURI",
            "outputs": [],
            "stateMutability": "nonpayable",
            "type": "function"
        },
        {
            "inputs": [
                {
                    "internalType": "uint256",
                    "name": "_tier",
                    "type": "uint256"
                }
            ],
            "name": "startTier",
            "outputs": [],
            "stateMutability": "nonpayable",
            "type": "function"
        },
        {
            "inputs": [
                {
                    "internalType": "bytes4",
                    "name": "interfaceId",
                    "type": "bytes4"
                }
            ],
            "name": "supportsInterface",
            "outputs": [
                {
                    "internalType": "bool",
                    "name": "",
                    "type": "bool"
                }
            ],
            "stateMutability": "view",
            "type": "function"
        },
        {
            "inputs": [],
            "name": "symbol",
            "outputs": [
                {
                    "internalType": "string",
                    "name": "",
                    "type": "string"
                }
            ],
            "stateMutability": "view",
            "type": "function"
        },
        {
            "inputs": [
                {
                    "internalType": "address",
                    "name": "",
                    "type": "address"
                }
            ],
            "name": "tier1NFTCount",
            "outputs": [
                {
                    "internalType": "uint256",
                    "name": "",
                    "type": "uint256"
                }
            ],
            "stateMutability": "view",
            "type": "function"
        },
        {
            "inputs": [
                {
                    "internalType": "address",
                    "name": "",
                    "type": "address"
                }
            ],
            "name": "tier2NFTCount",
            "outputs": [
                {
                    "internalType": "uint256",
                    "name": "",
                    "type": "uint256"
                }
            ],
            "stateMutability": "view",
            "type": "function"
        },
        {
            "inputs": [
                {
                    "internalType": "uint256",
                    "name": "",
                    "type": "uint256"
                }
            ],
            "name": "tierActiveStatus",
            "outputs": [
                {
                    "internalType": "bool",
                    "name": "",
                    "type": "bool"
                }
            ],
            "stateMutability": "view",
            "type": "function"
        },
        {
            "inputs": [
                {
                    "internalType": "uint256",
                    "name": "",
                    "type": "uint256"
                }
            ],
            "name": "tierDurations",
            "outputs": [
                {
                    "internalType": "uint256",
                    "name": "",
                    "type": "uint256"
                }
            ],
            "stateMutability": "view",
            "type": "function"
        },
        {
            "inputs": [
                {
                    "internalType": "uint256",
                    "name": "",
                    "type": "uint256"
                }
            ],
            "name": "tierStartTimes",
            "outputs": [
                {
                    "internalType": "uint256",
                    "name": "",
                    "type": "uint256"
                }
            ],
            "stateMutability": "view",
            "type": "function"
        },
        {
            "inputs": [
                {
                    "internalType": "address",
                    "name": "",
                    "type": "address"
                },
                {
                    "internalType": "uint256",
                    "name": "",
                    "type": "uint256"
                }
            ],
            "name": "tierWhitelist",
            "outputs": [
                {
                    "internalType": "bool",
                    "name": "",
                    "type": "bool"
                }
            ],
            "stateMutability": "view",
            "type": "function"
        },
        {
            "inputs": [],
            "name": "totalSupply",
            "outputs": [
                {
                    "internalType": "uint256",
                    "name": "",
                    "type": "uint256"
                }
            ],
            "stateMutability": "view",
            "type": "function"
        },
        {
            "inputs": [
                {
                    "internalType": "address",
                    "name": "to",
                    "type": "address"
                },
                {
                    "internalType": "uint256",
                    "name": "value",
                    "type": "uint256"
                }
            ],
            "name": "transfer",
            "outputs": [
                {
                    "internalType": "bool",
                    "name": "",
                    "type": "bool"
                }
            ],
            "stateMutability": "nonpayable",
            "type": "function"
        },
        {
            "inputs": [
                {
                    "internalType": "address",
                    "name": "from",
                    "type": "address"
                },
                {
                    "internalType": "address",
                    "name": "to",
                    "type": "address"
                },
                {
                    "internalType": "uint256",
                    "name": "value",
                    "type": "uint256"
                }
            ],
            "name": "transferFrom",
            "outputs": [
                {
                    "internalType": "bool",
                    "name": "",
                    "type": "bool"
                }
            ],
            "stateMutability": "nonpayable",
            "type": "function"
        },
        {
            "inputs": [
                {
                    "internalType": "address",
                    "name": "newOwner",
                    "type": "address"
                }
            ],
            "name": "transferOwnership",
            "outputs": [],
            "stateMutability": "nonpayable",
            "type": "function"
        },
        {
            "inputs": [
                {
                    "internalType": "uint256",
                    "name": "",
                    "type": "uint256"
                }
            ],
            "name": "uri",
            "outputs": [
                {
                    "internalType": "string",
                    "name": "",
                    "type": "string"
                }
            ],
            "stateMutability": "view",
            "type": "function"
        },
        {
            "inputs": [
                {
                    "internalType": "address",
                    "name": "",
                    "type": "address"
                }
            ],
            "name": "userNFTs",
            "outputs": [
                {
                    "internalType": "enum NFTLocked.NFTType",
                    "name": "nftType",
                    "type": "uint8"
                }
            ],
            "stateMutability": "view",
            "type": "function"
        },
        {
            "inputs": [
                {
                    "internalType": "address",
                    "name": "",
                    "type": "address"
                }
            ],
            "name": "whitelistCounter",
            "outputs": [
                {
                    "internalType": "uint256",
                    "name": "",
                    "type": "uint256"
                }
            ],
            "stateMutability": "view",
            "type": "function"
        },
        {
            "inputs": [
                {
                    "internalType": "address",
                    "name": "_user",
                    "type": "address"
                }
            ],
            "name": "whitelistUser",
            "outputs": [],
            "stateMutability": "nonpayable",
            "type": "function"
        },
        {
            "inputs": [],
            "name": "withdraw",
            "outputs": [],
            "stateMutability": "nonpayable",
            "type": "function"
        }
    ],
    "bytecode": "6080604052601280546001600160a01b031916735fbdb2315678afecb367f032d93f642f64180aa31790553480156200003757600080fd5b5033604051806040016040528060098152602001682a32b9ba2a37b5b2b760b91b815250604051806040016040528060038152602001621514d560ea1b8152506040518060400160405280601481526020017f697066733a2f2f4349442f7b69647d2e6a736f6e000000000000000000000000815250620000be81620001df60201b60201c565b506006620000cd8382620002e8565b506007620000dc8282620002e8565b5050506001600160a01b0381166200010e57604051631e4fbdf760e01b81526000600482015260240160405180910390fd5b6200011981620001f1565b50600a6020526107087fbbc70db1b6c7afd11e79c0fb0051300458f1a3acb8ee9789d9b6b26c61ad9bc78190557fbff4442b8ed600beeb8e26b1279a0f0d14c6edfaec26d968ee13c86f7d4c2ba88190557fa856840544dc26124927add067d799967eac11be13e14d82cc281ea46fa397598190557fe1eb2b2161a492c07c5a334e48012567cba93ec021043f53c1955516a3c5a84181905560056000527ff35035bc2b01d44bd35a1dcdc552315cffb73da35cfd60570b7b777f98036f9f55620003b4565b6002620001ed8282620002e8565b5050565b600880546001600160a01b038381166001600160a01b0319831681179093556040519116919082907f8be0079c531659141344cd1fd0a4f28419497f9722a3daafe3b4186f6b6457e090600090a35050565b634e487b7160e01b600052604160045260246000fd5b600181811c908216806200026e57607f821691505b6020821081036200028f57634e487b7160e01b600052602260045260246000fd5b50919050565b601f821115620002e357600081815260208120601f850160051c81016020861015620002be5750805b601f850160051c820191505b81811015620002df57828155600101620002ca565b5050505b505050565b81516001600160401b0381111562000304576200030462000243565b6200031c8162000315845462000259565b8462000295565b602080601f8311600181146200035457600084156200033b5750858301515b600019600386901b1c1916600185901b178555620002df565b600085815260208120601f198616915b82811015620003855788860151825594840194600190910190840162000364565b5085821015620003a45787850151600019600388901b60f8161c191681555b5050505050600190811b01905550565b612d3880620003c46000396000f3fe60806040526004361061023a5760003560e01c8063715018a61161012e578063be040fb0116100ab578063df4f2f301161006f578063df4f2f3014610758578063e5365d6314610788578063e985e9c5146107c3578063f242432a146107e3578063f2fde38b1461080357600080fd5b8063be040fb014610670578063c3c5a54714610685578063cc8fea7e146106b5578063d198ce6a146106d5578063dd62ed3e1461071257600080fd5b80639b08f33c116100f25780639b08f33c146105b6578063a0712d68146105e3578063a22cb46514610603578063a2fd4b6014610623578063a9059cbb1461065057600080fd5b8063715018a61461051757806378c8cda71461052c5780637b287e2e1461054c5780638da5cb5b1461057957806395d89b41146105a157600080fd5b8063229acf9e116101bc57806340ea68b21161018057806340ea68b2146104475780634a4c560d146104745780634e1273f414610494578063704bd93c146104c157806370a08231146104e157600080fd5b8063229acf9e146103b657806323b872dd146103d65780632eb2c2d6146103f6578063313ce567146104165780633ccfd60b1461043257600080fd5b806306fdde031161020357806306fdde0314610304578063095ea7b3146103265780630e89341c14610346578063163f75221461036657806318160ddd146103a157600080fd5b8062fdd58e1461023f57806301ffc9a71461027257806302fe5305146102a2578063041a72dd146102c457806305ce3c60146102d7575b600080fd5b34801561024b57600080fd5b5061025f61025a3660046123ef565b610823565b6040519081526020015b60405180910390f35b34801561027e57600080fd5b5061029261028d36600461242f565b61084b565b6040519015158152602001610269565b3480156102ae57600080fd5b506102c26102bd3660046124f2565b61089b565b005b6102c26102d2366004612552565b6108af565b3480156102e357600080fd5b5061025f6102f236600461256e565b600b6020526000908152604090205481565b34801561031057600080fd5b50610319610c61565b60405161026991906125cf565b34801561033257600080fd5b506102926103413660046123ef565b610cf3565b34801561035257600080fd5b506103196103613660046125e2565b610d0b565b34801561037257600080fd5b5061029261038136600461256e565b6001600160a01b0316600090815260096020526040902060010154151590565b3480156103ad57600080fd5b5060055461025f565b3480156103c257600080fd5b506102c26103d13660046125e2565b610d9f565b3480156103e257600080fd5b506102926103f13660046125fb565b610e07565b34801561040257600080fd5b506102c26104113660046126e6565b610e2b565b34801561042257600080fd5b5060405160128152602001610269565b34801561043e57600080fd5b506102c2610e92565b34801561045357600080fd5b5061025f6104623660046125e2565b600a6020526000908152604090205481565b34801561048057600080fd5b506102c261048f36600461256e565b610ee9565b3480156104a057600080fd5b506104b46104af366004612790565b610ffa565b604051610269919061288b565b3480156104cd57600080fd5b506102c26104dc3660046125e2565b6110cf565b3480156104ed57600080fd5b5061025f6104fc36600461256e565b6001600160a01b031660009081526003602052604090205490565b34801561052357600080fd5b506102c261119f565b34801561053857600080fd5b506102c261054736600461256e565b6111b3565b34801561055857600080fd5b5061025f6105673660046125e2565b600f6020526000908152604090205481565b34801561058557600080fd5b506008546040516001600160a01b039091168152602001610269565b3480156105ad57600080fd5b5061031961121c565b3480156105c257600080fd5b5061025f6105d136600461256e565b600e6020526000908152604090205481565b3480156105ef57600080fd5b506102c26105fe3660046125e2565b61122b565b34801561060f57600080fd5b506102c261061e36600461289e565b611253565b34801561062f57600080fd5b5061025f61063e36600461256e565b600d6020526000908152604090205481565b34801561065c57600080fd5b5061029261066b3660046123ef565b61125e565b34801561067c57600080fd5b506102c261126c565b34801561069157600080fd5b506102926106a036600461256e565b60106020526000908152604090205460ff1681565b3480156106c157600080fd5b506102c26106d03660046128da565b611665565b3480156106e157600080fd5b506107056106f036600461256e565b60096020526000908152604090205460ff1681565b6040516102699190612970565b34801561071e57600080fd5b5061025f61072d36600461297e565b6001600160a01b03918216600090815260046020908152604080832093909416825291909152205490565b34801561076457600080fd5b506102926107733660046125e2565b60116020526000908152604090205460ff1681565b34801561079457600080fd5b506102926107a33660046123ef565b600c60209081526000928352604080842090915290825290205460ff1681565b3480156107cf57600080fd5b506102926107de36600461297e565b6117d5565b3480156107ef57600080fd5b506102c26107fe3660046129b1565b611803565b34801561080f57600080fd5b506102c261081e36600461256e565b611862565b6000818152602081815260408083206001600160a01b03861684529091529020545b92915050565b60006001600160e01b03198216636cdb3d1360e11b148061087c57506001600160e01b031982166303a24d0760e21b145b8061084557506301ffc9a760e01b6001600160e01b0319831614610845565b6108a361189d565b6108ac816118ca565b50565b336000908152600960205260409020600101546109095760405162461bcd60e51b8152602060048201526013602482015272155cd95c881b9bdd081c9959da5cdd195c9959606a1b60448201526064015b60405180910390fd5b336000908152600b602052604090205461095c5760405162461bcd60e51b8152602060048201526014602482015273155cd95c881b9bdd081dda1a5d195b1a5cdd195960621b6044820152606401610900565b60006109666118d6565b905080600114806109775750806002145b6109c35760405162461bcd60e51b815260206004820152601960248201527f496e76616c6964207469657220666f72207075726368617365000000000000006044820152606401610900565b60008111610a095760405162461bcd60e51b8152602060048201526013602482015272139bc81d1a595c881cdd185c9d1959081e595d606a1b6044820152606401610900565b60008181526011602052604090205460ff16610a595760405162461bcd60e51b815260206004820152600f60248201526e54696572206e6f742061637469766560881b6044820152606401610900565b60008082600103610ad1576000856002811115610a7857610a78612938565b14610a8a57662386f26fc10000610a93565b66470de4df8200005b336000908152600d60205260408120805466ffffffffffffff939093169450600593508692909190610ac6908490612a2c565b90915550610b399050565b6000856002811115610ae557610ae5612938565b14610af757662386f26fc10000610b00565b66470de4df8200005b336000908152600e60205260408120805466ffffffffffffff939093169450600393508692909190610b33908490612a2c565b90915550505b6000610b458584612a3f565b905080341015610b8c5760405162461bcd60e51b8152602060048201526012602482015271496e73756666696369656e742066756e647360701b6044820152606401610900565b6000610b983388611930565b905082610ba58783612a2c565b1115610bec5760405162461bcd60e51b8152602060048201526016602482015275141d5c98da185cd9481b1a5b5a5d081c995858da195960521b6044820152606401610900565b610c1833886002811115610c0257610c02612938565b8860405180602001604052806000815250611988565b81341115610c5857336108fc610c2e8434612a56565b6040518115909202916000818181858888f19350505050158015610c56573d6000803e3d6000fd5b505b50505050505050565b606060068054610c7090612a69565b80601f0160208091040260200160405190810160405280929190818152602001828054610c9c90612a69565b8015610ce95780601f10610cbe57610100808354040283529160200191610ce9565b820191906000526020600020905b815481529060010190602001808311610ccc57829003601f168201915b5050505050905090565b600033610d018185856119e5565b5060019392505050565b606060028054610d1a90612a69565b80601f0160208091040260200160405190810160405280929190818152602001828054610d4690612a69565b8015610d935780601f10610d6857610100808354040283529160200191610d93565b820191906000526020600020905b815481529060010190602001808311610d7657829003601f168201915b50505050509050919050565b60008181526011602052604090205460ff16610def5760405162461bcd60e51b815260206004820152600f60248201526e54696572206e6f742061637469766560881b6044820152606401610900565b6000908152601160205260409020805460ff19169055565b600033610e158582856119f2565b610e20858585611a70565b506001949350505050565b336001600160a01b0386168114801590610e4c5750610e4a86826117d5565b155b15610e7d5760405163711bec9160e11b81526001600160a01b03808316600483015287166024820152604401610900565b610e8a8686868686611acf565b505050505050565b610e9a61189d565b47610ead6008546001600160a01b031690565b6001600160a01b03166108fc829081150290604051600060405180830381858888f19350505050158015610ee5573d6000803e3d6000fd5b5050565b6001600160a01b038116600090815260096020908152604080832060010180548251818502810185019093528083529192909190830182828015610f4c57602002820191906000526020600020905b815481526020019060010190808311610f38575b5050505050905060005b8151811015610ff5576001600160a01b0383166000908152600c60205260408120835160019290859085908110610f8f57610f8f612a9d565b60209081029190910181015182528181019290925260409081016000908120805460ff1916941515949094179093556001600160a01b0386168352600b9091528120805491610fdd83612ab3565b91905055508080610fed90612ab3565b915050610f56565b505050565b6060815183511461102b5781518351604051635b05999160e01b815260048101929092526024820152604401610900565b6000835167ffffffffffffffff81111561104757611047612453565b604051908082528060200260200182016040528015611070578160200160208202803683370190505b50905060005b84518110156110c75760208082028601015161109a90602080840287010151610823565b8282815181106110ac576110ac612a9d565b60209081029190910101526110c081612ab3565b9050611076565b509392505050565b6110d761189d565b600181101580156110e9575060058111155b6111245760405162461bcd60e51b815260206004820152600c60248201526b24b73b30b634b2103a34b2b960a11b6044820152606401610900565b6000818152600f6020526040902054156111775760405162461bcd60e51b8152602060048201526014602482015273151a595c88185b1c9958591e481cdd185c9d195960621b6044820152606401610900565b6000908152600f6020908152604080832042905560119091529020805460ff19166001179055565b6111a761189d565b6111b16000611b36565b565b6111bb61189d565b6001600160a01b0381166000908152600b602052604081205560015b60058111610ee5576001600160a01b0382166000908152600c602090815260408083208484529091529020805460ff191690558061121481612ab3565b9150506111d7565b606060078054610c7090612a69565b61123361189d565b600061124782670de0b6b3a7640000612a3f565b9050610ee53382611b88565b610ee5338383611bbe565b600033610d01818585611a70565b60006112766118d6565b90506003811015801561128a575060058111155b6112d65760405162461bcd60e51b815260206004820152601b60248201527f496e76616c6964207469657220666f7220726564656d7074696f6e00000000006044820152606401610900565b3360009081526009602052604080822081518083019092528054829060ff16600281111561130657611306612938565b600281111561131757611317612938565b81526020016001820180548060200260200160405190810160405280929190818152602001828054801561136a57602002820191906000526020600020905b815481526020019060010190808311611356575b5050505050815250509050600080600281111561138957611389612938565b8251600281111561139c5761139c612938565b146113a85760326113ab565b60645b60ff16905060006113bb33611c55565b9050600060646113cc846032612a3f565b6113d69190612acc565b9050600060646113e785600a612a3f565b6113f19190612acc565b905060006064611402866028612a3f565b61140c9190612acc565b905060006003881015801561144b57506003600052600f6020527f45f76dafbbad695564362934e24d72eedc57f9fc1a65f39bca62176cc82968285415155b80156114ad575060036000527fa856840544dc26124927add067d799967eac11be13e14d82cc281ea46fa3975954600f6020527f45f76dafbbad695564362934e24d72eedc57f9fc1a65f39bca62176cc8296828546114aa9190612a2c565b42115b156114bf576114bc8482612a2c565b90505b600488101580156114fa57506004600052600f6020527f367ccd2d0ac16bf7110a5dffe0801fdc9452a95a1adb7e1a12fe97dd3e9a4edd5415155b801561155c575060046000527fe1eb2b2161a492c07c5a334e48012567cba93ec021043f53c1955516a3c5a84154600f6020527f367ccd2d0ac16bf7110a5dffe0801fdc9452a95a1adb7e1a12fe97dd3e9a4edd546115599190612a2c565b42115b1561156e5761156b8382612a2c565b90505b60008860030361157f575083611599565b8860040361158e575082611599565b886005036115995750815b6115a38282612a2c565b9050600060646115b38989612a3f565b6115bd9190612acc565b9050600060646115cd8484612a3f565b6115d79190612acc565b3060009081526003602052604090205490915081111561164d5760405162461bcd60e51b815260206004820152602b60248201527f496e73756666696369656e74205453542062616c616e636520696e206f776e6560448201526a1c89dcc81858d8dbdd5b9d60aa1b6064820152608401610900565b611657338261125e565b505050505050505050505050565b6001600160a01b038316600090815260096020526040902060010154156116ce5760405162461bcd60e51b815260206004820152601760248201527f5573657220616c726561647920726567697374657265640000000000000000006044820152606401610900565b60028151111561170f5760405162461bcd60e51b815260206004820152600c60248201526b24b73b30b634b2103a34b2b960a11b6044820152606401610900565b604051806040016040528083600281111561172c5761172c612938565b815260209081018390526001600160a01b038516600090815260099091526040902081518154829060ff1916600183600281111561176c5761176c612938565b021790555060208281015180516117899260018501920190612373565b50905050826001600160a01b03167fceed638d834965f3e4c92cc251346928bf9d207bcce6d1b4d6ce8ac19c15b2ad83836040516117c8929190612aee565b60405180910390a2505050565b6001600160a01b03918216600090815260016020908152604080832093909416825291909152205460ff1690565b336001600160a01b0386168114801590611824575061182286826117d5565b155b156118555760405163711bec9160e11b81526001600160a01b03808316600483015287166024820152604401610900565b610e8a8686868686611c83565b61186a61189d565b6001600160a01b03811661189457604051631e4fbdf760e01b815260006004820152602401610900565b6108ac81611b36565b6008546001600160a01b031633146111b15760405163118cdaa760e01b8152336004820152602401610900565b6002610ee58282612b54565b60008060015b6005811161192a576000818152600f60205260409020541580159061190f575060008181526011602052604090205460ff165b15611918578091505b8061192281612ab3565b9150506118dc565b50919050565b60008082600281111561194557611945612938565b0361196957506001600160a01b0382166000908152600d6020526040902054610845565b506001600160a01b0382166000908152600e6020526040902054610845565b6001600160a01b0384166119b257604051632bfa23e760e11b815260006004820152602401610900565b60408051600180825260208201869052818301908152606082018590526080820190925290610e8a600087848487611d04565b610ff58383836001611d57565b6001600160a01b038381166000908152600460209081526040808320938616835292905220546000198114611a6a5781811015611a5b57604051637dc7a0d960e11b81526001600160a01b03841660048201526024810182905260448101839052606401610900565b611a6a84848484036000611d57565b50505050565b6001600160a01b038316611a9a57604051634b637e8f60e11b815260006004820152602401610900565b6001600160a01b038216611ac45760405163ec442f0560e01b815260006004820152602401610900565b610ff5838383611e2c565b6001600160a01b038416611af957604051632bfa23e760e11b815260006004820152602401610900565b6001600160a01b038516611b2257604051626a0d4560e21b815260006004820152602401610900565b611b2f8585858585611d04565b5050505050565b600880546001600160a01b038381166001600160a01b0319831681179093556040519116919082907f8be0079c531659141344cd1fd0a4f28419497f9722a3daafe3b4186f6b6457e090600090a35050565b6001600160a01b038216611bb25760405163ec442f0560e01b815260006004820152602401610900565b610ee560008383611e2c565b6001600160a01b038216611be75760405162ced3e160e81b815260006004820152602401610900565b6001600160a01b03838116600081815260016020908152604080832094871680845294825291829020805460ff191686151590811790915591519182527f17307eab39ab6107e8899845ad3d59bd9653f200f220920489ca2b5937696c3191015b60405180910390a3505050565b6001600160a01b0381166000908152600e6020908152604080832054600d9092528220546108459190612a2c565b6001600160a01b038416611cad57604051632bfa23e760e11b815260006004820152602401610900565b6001600160a01b038516611cd657604051626a0d4560e21b815260006004820152602401610900565b60408051600180825260208201869052818301908152606082018590526080820190925290610c5887878484875b611d1085858585611f49565b6001600160a01b03841615611b2f5782513390600103611d495760208481015190840151611d42838989858589612166565b5050610e8a565b610e8a81878787878761228a565b6001600160a01b038416611d815760405163e602df0560e01b815260006004820152602401610900565b6001600160a01b038316611dab57604051634a1406b160e11b815260006004820152602401610900565b6001600160a01b0380851660009081526004602090815260408083209387168352929052208290558015611a6a57826001600160a01b0316846001600160a01b03167f8c5be1e5ebec7d5bd14f71427d1e84f3dd0314c0f7b2291e5b200ac8c7c3b92584604051611e1e91815260200190565b60405180910390a350505050565b6001600160a01b038316611e57578060056000828254611e4c9190612a2c565b90915550611ec99050565b6001600160a01b03831660009081526003602052604090205481811015611eaa5760405163391434e360e21b81526001600160a01b03851660048201526024810182905260448101839052606401610900565b6001600160a01b03841660009081526003602052604090209082900390555b6001600160a01b038216611ee557600580548290039055611f04565b6001600160a01b03821660009081526003602052604090208054820190555b816001600160a01b0316836001600160a01b03167fddf252ad1be2c89b69c2b068fc378daa952ba7f163c4a11628f55a4df523b3ef83604051611c4891815260200190565b8051825114611f785781518151604051635b05999160e01b815260048101929092526024820152604401610900565b3360005b8351811015612087576020818102858101820151908501909101516001600160a01b0388161561202f576000828152602081815260408083206001600160a01b038c16845290915290205481811015612008576040516303dee4c560e01b81526001600160a01b038a166004820152602481018290526044810183905260648101849052608401610900565b6000838152602081815260408083206001600160a01b038d16845290915290209082900390555b6001600160a01b03871615612074576000828152602081815260408083206001600160a01b038b1684529091528120805483929061206e908490612a2c565b90915550505b50508061208090612ab3565b9050611f7c565b5082516001036121085760208301516000906020840151909150856001600160a01b0316876001600160a01b0316846001600160a01b03167fc3d58168c5ae7397731d063d5bbf3d657854427343f4c083240f7aacaa2d0f6285856040516120f9929190918252602082015260400190565b60405180910390a45050611b2f565b836001600160a01b0316856001600160a01b0316826001600160a01b03167f4a39dc06d4c0dbc64b70af90fd698a233a518aa5d07e595d983b8c0526c8f7fb8686604051612157929190612c14565b60405180910390a45050505050565b6001600160a01b0384163b15610e8a5760405163f23a6e6160e01b81526001600160a01b0385169063f23a6e61906121aa9089908990889088908890600401612c42565b6020604051808303816000875af19250505080156121e5575060408051601f3d908101601f191682019092526121e291810190612c87565b60015b61224e573d808015612213576040519150601f19603f3d011682016040523d82523d6000602084013e612218565b606091505b50805160000361224657604051632bfa23e760e11b81526001600160a01b0386166004820152602401610900565b805181602001fd5b6001600160e01b0319811663f23a6e6160e01b14610c5857604051632bfa23e760e11b81526001600160a01b0386166004820152602401610900565b6001600160a01b0384163b15610e8a5760405163bc197c8160e01b81526001600160a01b0385169063bc197c81906122ce9089908990889088908890600401612ca4565b6020604051808303816000875af1925050508015612309575060408051601f3d908101601f1916820190925261230691810190612c87565b60015b612337573d808015612213576040519150601f19603f3d011682016040523d82523d6000602084013e612218565b6001600160e01b0319811663bc197c8160e01b14610c5857604051632bfa23e760e11b81526001600160a01b0386166004820152602401610900565b8280548282559060005260206000209081019282156123ae579160200282015b828111156123ae578251825591602001919060010190612393565b506123ba9291506123be565b5090565b5b808211156123ba57600081556001016123bf565b80356001600160a01b03811681146123ea57600080fd5b919050565b6000806040838503121561240257600080fd5b61240b836123d3565b946020939093013593505050565b6001600160e01b0319811681146108ac57600080fd5b60006020828403121561244157600080fd5b813561244c81612419565b9392505050565b634e487b7160e01b600052604160045260246000fd5b604051601f8201601f1916810167ffffffffffffffff8111828210171561249257612492612453565b604052919050565b600067ffffffffffffffff8311156124b4576124b4612453565b6124c7601f8401601f1916602001612469565b90508281528383830111156124db57600080fd5b828260208301376000602084830101529392505050565b60006020828403121561250457600080fd5b813567ffffffffffffffff81111561251b57600080fd5b8201601f8101841361252c57600080fd5b61253b8482356020840161249a565b949350505050565b8035600381106123ea57600080fd5b6000806040838503121561256557600080fd5b61240b83612543565b60006020828403121561258057600080fd5b61244c826123d3565b6000815180845260005b818110156125af57602081850181015186830182015201612593565b506000602082860101526020601f19601f83011685010191505092915050565b60208152600061244c6020830184612589565b6000602082840312156125f457600080fd5b5035919050565b60008060006060848603121561261057600080fd5b612619846123d3565b9250612627602085016123d3565b9150604084013590509250925092565b600067ffffffffffffffff82111561265157612651612453565b5060051b60200190565b600082601f83011261266c57600080fd5b8135602061268161267c83612637565b612469565b82815260059290921b840181019181810190868411156126a057600080fd5b8286015b848110156126bb57803583529183019183016126a4565b509695505050505050565b600082601f8301126126d757600080fd5b61244c8383356020850161249a565b600080600080600060a086880312156126fe57600080fd5b612707866123d3565b9450612715602087016123d3565b9350604086013567ffffffffffffffff8082111561273257600080fd5b61273e89838a0161265b565b9450606088013591508082111561275457600080fd5b61276089838a0161265b565b9350608088013591508082111561277657600080fd5b50612783888289016126c6565b9150509295509295909350565b600080604083850312156127a357600080fd5b823567ffffffffffffffff808211156127bb57600080fd5b818501915085601f8301126127cf57600080fd5b813560206127df61267c83612637565b82815260059290921b840181019181810190898411156127fe57600080fd5b948201945b8386101561282357612814866123d3565b82529482019490820190612803565b9650508601359250508082111561283957600080fd5b506128468582860161265b565b9150509250929050565b600081518084526020808501945080840160005b8381101561288057815187529582019590820190600101612864565b509495945050505050565b60208152600061244c6020830184612850565b600080604083850312156128b157600080fd5b6128ba836123d3565b9150602083013580151581146128cf57600080fd5b809150509250929050565b6000806000606084860312156128ef57600080fd5b6128f8846123d3565b925061290660208501612543565b9150604084013567ffffffffffffffff81111561292257600080fd5b61292e8682870161265b565b9150509250925092565b634e487b7160e01b600052602160045260246000fd5b6003811061296c57634e487b7160e01b600052602160045260246000fd5b9052565b60208101610845828461294e565b6000806040838503121561299157600080fd5b61299a836123d3565b91506129a8602084016123d3565b90509250929050565b600080600080600060a086880312156129c957600080fd5b6129d2866123d3565b94506129e0602087016123d3565b93506040860135925060608601359150608086013567ffffffffffffffff811115612a0a57600080fd5b612783888289016126c6565b634e487b7160e01b600052601160045260246000fd5b8082018082111561084557610845612a16565b808202811582820484141761084557610845612a16565b8181038181111561084557610845612a16565b600181811c90821680612a7d57607f821691505b60208210810361192a57634e487b7160e01b600052602260045260246000fd5b634e487b7160e01b600052603260045260246000fd5b600060018201612ac557612ac5612a16565b5060010190565b600082612ae957634e487b7160e01b600052601260045260246000fd5b500490565b612af8818461294e565b60406020820152600061253b6040830184612850565b601f821115610ff557600081815260208120601f850160051c81016020861015612b355750805b601f850160051c820191505b81811015610e8a57828155600101612b41565b815167ffffffffffffffff811115612b6e57612b6e612453565b612b8281612b7c8454612a69565b84612b0e565b602080601f831160018114612bb75760008415612b9f5750858301515b600019600386901b1c1916600185901b178555610e8a565b600085815260208120601f198616915b82811015612be657888601518255948401946001909101908401612bc7565b5085821015612c045787850151600019600388901b60f8161c191681555b5050505050600190811b01905550565b604081526000612c276040830185612850565b8281036020840152612c398185612850565b95945050505050565b6001600160a01b03868116825285166020820152604081018490526060810183905260a060808201819052600090612c7c90830184612589565b979650505050505050565b600060208284031215612c9957600080fd5b815161244c81612419565b6001600160a01b0386811682528516602082015260a060408201819052600090612cd090830186612850565b8281036060840152612ce28186612850565b90508281036080840152612cf68185612589565b9897505050505050505056fea26469706673582212200a131fa1871b1640f03f45cbbf5fb72a4069a298c8f28e94975707570b84894864736f6c63430008130033",
    "sourcePath": "/home/webclues/Pragati_Workspace/ERC1155/Nft/src/NFT.sol",
    "compiler": {
        "name": "solc",
        "version": "0.8.19+commit.7dd6d404"
    },
    "functionHashes": {
        "allowance(address,address)": "dd62ed3e",
        "approve(address,uint256)": "095ea7b3",
        "balanceOf(address)": "70a08231",
        "balanceOf(address,uint256)": "00fdd58e",
        "balanceOfBatch(address[],uint256[])": "4e1273f4",
        "decimals()": "313ce567",
        "endTier(uint256)": "229acf9e",
        "isApprovedForAll(address,address)": "e985e9c5",
        "isRegistered(address)": "c3c5a547",
        "isUserRegistered(address)": "163f7522",
        "mint(uint256)": "a0712d68",
        "name()": "06fdde03",
        "owner()": "8da5cb5b",
        "purchaseNFT(uint8,uint256)": "041a72dd",
        "redeem()": "be040fb0",
        "registerUser(address,uint8,uint256[])": "cc8fea7e",
        "removeWhitelist(address)": "78c8cda7",
        "renounceOwnership()": "715018a6",
        "safeBatchTransferFrom(address,address,uint256[],uint256[],bytes)": "2eb2c2d6",
        "safeTransferFrom(address,address,uint256,uint256,bytes)": "f242432a",
        "setApprovalForAll(address,bool)": "a22cb465",
        "setURI(string)": "02fe5305",
        "startTier(uint256)": "704bd93c",
        "supportsInterface(bytes4)": "01ffc9a7",
        "symbol()": "95d89b41",
        "tier1NFTCount(address)": "a2fd4b60",
        "tier2NFTCount(address)": "9b08f33c",
        "tierActiveStatus(uint256)": "df4f2f30",
        "tierDurations(uint256)": "40ea68b2",
        "tierStartTimes(uint256)": "7b287e2e",
        "tierWhitelist(address,uint256)": "e5365d63",
        "totalSupply()": "18160ddd",
        "transfer(address,uint256)": "a9059cbb",
        "transferFrom(address,address,uint256)": "23b872dd",
        "transferOwnership(address)": "f2fde38b",
        "uri(uint256)": "0e89341c",
        "userNFTs(address)": "d198ce6a",
        "whitelistCounter(address)": "05ce3c60",
        "whitelistUser(address)": "4a4c560d",
        "withdraw()": "3ccfd60b"
    },
    "gasEstimates": {
        "creation": {
            "codeDepositCost": "2315200",
            "executionCost": "infinite",
            "totalCost": "infinite"
        },
        "external": {
            "allowance(address,address)": "infinite",
            "approve(address,uint256)": "24780",
            "balanceOf(address)": "2659",
            "balanceOf(address,uint256)": "2683",
            "balanceOfBatch(address[],uint256[])": "infinite",
            "decimals()": "289",
            "endTier(uint256)": "26740",
            "isApprovedForAll(address,address)": "infinite",
            "isRegistered(address)": "2598",
            "isUserRegistered(address)": "2667",
            "mint(uint256)": "infinite",
            "name()": "infinite",
            "owner()": "2413",
            "purchaseNFT(uint8,uint256)": "infinite",
            "redeem()": "infinite",
            "registerUser(address,uint8,uint256[])": "infinite",
            "removeWhitelist(address)": "infinite",
            "renounceOwnership()": "infinite",
            "safeBatchTransferFrom(address,address,uint256[],uint256[],bytes)": "infinite",
            "safeTransferFrom(address,address,uint256,uint256,bytes)": "infinite",
            "setApprovalForAll(address,bool)": "26749",
            "setURI(string)": "infinite",
            "startTier(uint256)": "51203",
            "supportsInterface(bytes4)": "601",
            "symbol()": "infinite",
            "tier1NFTCount(address)": "2619",
            "tier2NFTCount(address)": "2553",
            "tierActiveStatus(uint256)": "2494",
            "tierDurations(uint256)": "2472",
            "tierStartTimes(uint256)": "2517",
            "tierWhitelist(address,uint256)": "2690",
            "totalSupply()": "2415",
            "transfer(address,uint256)": "51342",
            "transferFrom(address,address,uint256)": "infinite",
            "transferOwnership(address)": "28468",
            "uri(uint256)": "infinite",
            "userNFTs(address)": "2717",
            "whitelistCounter(address)": "2643",
            "whitelistUser(address)": "infinite",
            "withdraw()": "infinite"
        },
        "internal": {
            "getCurrentStartedTier()": "infinite",
            "getNFTCountByType(address,enum NFTLocked.NFTType)": "2281",
            "getTotalNFTsPurchased(address)": "infinite"
        }
    }
}