{
    "contractName": "NFTLocked",
    "abi": [
        {
            "inputs": [
                {
                    "internalType": "string",
                    "name": "_goldNFTUrl",
                    "type": "string"
                },
                {
                    "internalType": "string",
                    "name": "_blackNFTUrl",
                    "type": "string"
                }
            ],
            "stateMutability": "nonpayable",
            "type": "constructor"
        },
        {
            "inputs": [
                {
                    "internalType": "address",
                    "name": "sender",
                    "type": "address"
                },
                {
                    "internalType": "uint256",
                    "name": "balance",
                    "type": "uint256"
                },
                {
                    "internalType": "uint256",
                    "name": "needed",
                    "type": "uint256"
                },
                {
                    "internalType": "uint256",
                    "name": "tokenId",
                    "type": "uint256"
                }
            ],
            "name": "ERC1155InsufficientBalance",
            "type": "error"
        },
        {
            "inputs": [
                {
                    "internalType": "address",
                    "name": "approver",
                    "type": "address"
                }
            ],
            "name": "ERC1155InvalidApprover",
            "type": "error"
        },
        {
            "inputs": [
                {
                    "internalType": "uint256",
                    "name": "idsLength",
                    "type": "uint256"
                },
                {
                    "internalType": "uint256",
                    "name": "valuesLength",
                    "type": "uint256"
                }
            ],
            "name": "ERC1155InvalidArrayLength",
            "type": "error"
        },
        {
            "inputs": [
                {
                    "internalType": "address",
                    "name": "operator",
                    "type": "address"
                }
            ],
            "name": "ERC1155InvalidOperator",
            "type": "error"
        },
        {
            "inputs": [
                {
                    "internalType": "address",
                    "name": "receiver",
                    "type": "address"
                }
            ],
            "name": "ERC1155InvalidReceiver",
            "type": "error"
        },
        {
            "inputs": [
                {
                    "internalType": "address",
                    "name": "sender",
                    "type": "address"
                }
            ],
            "name": "ERC1155InvalidSender",
            "type": "error"
        },
        {
            "inputs": [
                {
                    "internalType": "address",
                    "name": "operator",
                    "type": "address"
                },
                {
                    "internalType": "address",
                    "name": "owner",
                    "type": "address"
                }
            ],
            "name": "ERC1155MissingApprovalForAll",
            "type": "error"
        },
        {
            "inputs": [
                {
                    "internalType": "address",
                    "name": "spender",
                    "type": "address"
                },
                {
                    "internalType": "uint256",
                    "name": "allowance",
                    "type": "uint256"
                },
                {
                    "internalType": "uint256",
                    "name": "needed",
                    "type": "uint256"
                }
            ],
            "name": "ERC20InsufficientAllowance",
            "type": "error"
        },
        {
            "inputs": [
                {
                    "internalType": "address",
                    "name": "sender",
                    "type": "address"
                },
                {
                    "internalType": "uint256",
                    "name": "balance",
                    "type": "uint256"
                },
                {
                    "internalType": "uint256",
                    "name": "needed",
                    "type": "uint256"
                }
            ],
            "name": "ERC20InsufficientBalance",
            "type": "error"
        },
        {
            "inputs": [
                {
                    "internalType": "address",
                    "name": "approver",
                    "type": "address"
                }
            ],
            "name": "ERC20InvalidApprover",
            "type": "error"
        },
        {
            "inputs": [
                {
                    "internalType": "address",
                    "name": "receiver",
                    "type": "address"
                }
            ],
            "name": "ERC20InvalidReceiver",
            "type": "error"
        },
        {
            "inputs": [
                {
                    "internalType": "address",
                    "name": "sender",
                    "type": "address"
                }
            ],
            "name": "ERC20InvalidSender",
            "type": "error"
        },
        {
            "inputs": [
                {
                    "internalType": "address",
                    "name": "spender",
                    "type": "address"
                }
            ],
            "name": "ERC20InvalidSpender",
            "type": "error"
        },
        {
            "inputs": [
                {
                    "internalType": "address",
                    "name": "owner",
                    "type": "address"
                }
            ],
            "name": "OwnableInvalidOwner",
            "type": "error"
        },
        {
            "inputs": [
                {
                    "internalType": "address",
                    "name": "account",
                    "type": "address"
                }
            ],
            "name": "OwnableUnauthorizedAccount",
            "type": "error"
        },
        {
            "anonymous": false,
            "inputs": [
                {
                    "indexed": true,
                    "internalType": "address",
                    "name": "owner",
                    "type": "address"
                },
                {
                    "indexed": true,
                    "internalType": "address",
                    "name": "spender",
                    "type": "address"
                },
                {
                    "indexed": false,
                    "internalType": "uint256",
                    "name": "value",
                    "type": "uint256"
                }
            ],
            "name": "Approval",
            "type": "event"
        },
        {
            "anonymous": false,
            "inputs": [
                {
                    "indexed": true,
                    "internalType": "address",
                    "name": "account",
                    "type": "address"
                },
                {
                    "indexed": true,
                    "internalType": "address",
                    "name": "operator",
                    "type": "address"
                },
                {
                    "indexed": false,
                    "internalType": "bool",
                    "name": "approved",
                    "type": "bool"
                }
            ],
            "name": "ApprovalForAll",
            "type": "event"
        },
        {
            "anonymous": false,
            "inputs": [
                {
                    "indexed": true,
                    "internalType": "address",
                    "name": "previousOwner",
                    "type": "address"
                },
                {
                    "indexed": true,
                    "internalType": "address",
                    "name": "newOwner",
                    "type": "address"
                }
            ],
            "name": "OwnershipTransferred",
            "type": "event"
        },
        {
            "anonymous": false,
            "inputs": [
                {
                    "indexed": true,
                    "internalType": "address",
                    "name": "from",
                    "type": "address"
                },
                {
                    "indexed": true,
                    "internalType": "address",
                    "name": "to",
                    "type": "address"
                },
                {
                    "indexed": false,
                    "internalType": "uint256",
                    "name": "value",
                    "type": "uint256"
                }
            ],
            "name": "Transfer",
            "type": "event"
        },
        {
            "anonymous": false,
            "inputs": [
                {
                    "indexed": true,
                    "internalType": "address",
                    "name": "operator",
                    "type": "address"
                },
                {
                    "indexed": true,
                    "internalType": "address",
                    "name": "from",
                    "type": "address"
                },
                {
                    "indexed": true,
                    "internalType": "address",
                    "name": "to",
                    "type": "address"
                },
                {
                    "indexed": false,
                    "internalType": "uint256[]",
                    "name": "ids",
                    "type": "uint256[]"
                },
                {
                    "indexed": false,
                    "internalType": "uint256[]",
                    "name": "values",
                    "type": "uint256[]"
                }
            ],
            "name": "TransferBatch",
            "type": "event"
        },
        {
            "anonymous": false,
            "inputs": [
                {
                    "indexed": true,
                    "internalType": "address",
                    "name": "operator",
                    "type": "address"
                },
                {
                    "indexed": true,
                    "internalType": "address",
                    "name": "from",
                    "type": "address"
                },
                {
                    "indexed": true,
                    "internalType": "address",
                    "name": "to",
                    "type": "address"
                },
                {
                    "indexed": false,
                    "internalType": "uint256",
                    "name": "id",
                    "type": "uint256"
                },
                {
                    "indexed": false,
                    "internalType": "uint256",
                    "name": "value",
                    "type": "uint256"
                }
            ],
            "name": "TransferSingle",
            "type": "event"
        },
        {
            "anonymous": false,
            "inputs": [
                {
                    "indexed": false,
                    "internalType": "string",
                    "name": "value",
                    "type": "string"
                },
                {
                    "indexed": true,
                    "internalType": "uint256",
                    "name": "id",
                    "type": "uint256"
                }
            ],
            "name": "URI",
            "type": "event"
        },
        {
            "anonymous": false,
            "inputs": [
                {
                    "indexed": true,
                    "internalType": "address",
                    "name": "user",
                    "type": "address"
                },
                {
                    "indexed": false,
                    "internalType": "enum NFTLocked.NFTType",
                    "name": "nftType",
                    "type": "uint8"
                },
                {
                    "indexed": false,
                    "internalType": "uint256[]",
                    "name": "tier",
                    "type": "uint256[]"
                }
            ],
            "name": "UserRegistered",
            "type": "event"
        },
        {
            "inputs": [
                {
                    "internalType": "address",
                    "name": "owner",
                    "type": "address"
                },
                {
                    "internalType": "address",
                    "name": "spender",
                    "type": "address"
                }
            ],
            "name": "allowance",
            "outputs": [
                {
                    "internalType": "uint256",
                    "name": "",
                    "type": "uint256"
                }
            ],
            "stateMutability": "view",
            "type": "function"
        },
        {
            "inputs": [
                {
                    "internalType": "address",
                    "name": "spender",
                    "type": "address"
                },
                {
                    "internalType": "uint256",
                    "name": "value",
                    "type": "uint256"
                }
            ],
            "name": "approve",
            "outputs": [
                {
                    "internalType": "bool",
                    "name": "",
                    "type": "bool"
                }
            ],
            "stateMutability": "nonpayable",
            "type": "function"
        },
        {
            "inputs": [
                {
                    "internalType": "address",
                    "name": "account",
                    "type": "address"
                },
                {
                    "internalType": "uint256",
                    "name": "id",
                    "type": "uint256"
                }
            ],
            "name": "balanceOf",
            "outputs": [
                {
                    "internalType": "uint256",
                    "name": "",
                    "type": "uint256"
                }
            ],
            "stateMutability": "view",
            "type": "function"
        },
        {
            "inputs": [
                {
                    "internalType": "address",
                    "name": "account",
                    "type": "address"
                }
            ],
            "name": "balanceOf",
            "outputs": [
                {
                    "internalType": "uint256",
                    "name": "",
                    "type": "uint256"
                }
            ],
            "stateMutability": "view",
            "type": "function"
        },
        {
            "inputs": [
                {
                    "internalType": "address[]",
                    "name": "accounts",
                    "type": "address[]"
                },
                {
                    "internalType": "uint256[]",
                    "name": "ids",
                    "type": "uint256[]"
                }
            ],
            "name": "balanceOfBatch",
            "outputs": [
                {
                    "internalType": "uint256[]",
                    "name": "",
                    "type": "uint256[]"
                }
            ],
            "stateMutability": "view",
            "type": "function"
        },
        {
            "inputs": [],
            "name": "blackNFTUrl",
            "outputs": [
                {
                    "internalType": "string",
                    "name": "",
                    "type": "string"
                }
            ],
            "stateMutability": "view",
            "type": "function"
        },
        {
            "inputs": [],
            "name": "decimals",
            "outputs": [
                {
                    "internalType": "uint8",
                    "name": "",
                    "type": "uint8"
                }
            ],
            "stateMutability": "view",
            "type": "function"
        },
        {
            "inputs": [
                {
                    "internalType": "uint256",
                    "name": "tierId",
                    "type": "uint256"
                }
            ],
            "name": "endTier",
            "outputs": [],
            "stateMutability": "nonpayable",
            "type": "function"
        },
        {
            "inputs": [],
            "name": "goldNFTUrl",
            "outputs": [
                {
                    "internalType": "string",
                    "name": "",
                    "type": "string"
                }
            ],
            "stateMutability": "view",
            "type": "function"
        },
        {
            "inputs": [
                {
                    "internalType": "address",
                    "name": "account",
                    "type": "address"
                },
                {
                    "internalType": "address",
                    "name": "operator",
                    "type": "address"
                }
            ],
            "name": "isApprovedForAll",
            "outputs": [
                {
                    "internalType": "bool",
                    "name": "",
                    "type": "bool"
                }
            ],
            "stateMutability": "view",
            "type": "function"
        },
        {
            "inputs": [
                {
                    "internalType": "address",
                    "name": "",
                    "type": "address"
                }
            ],
            "name": "isRegistered",
            "outputs": [
                {
                    "internalType": "bool",
                    "name": "",
                    "type": "bool"
                }
            ],
            "stateMutability": "view",
            "type": "function"
        },
        {
            "inputs": [
                {
                    "internalType": "address",
                    "name": "_user",
                    "type": "address"
                }
            ],
            "name": "isUserRegistered",
            "outputs": [
                {
                    "internalType": "bool",
                    "name": "",
                    "type": "bool"
                }
            ],
            "stateMutability": "view",
            "type": "function"
        },
        {
            "inputs": [
                {
                    "internalType": "uint256",
                    "name": "amount",
                    "type": "uint256"
                }
            ],
            "name": "mint",
            "outputs": [],
            "stateMutability": "nonpayable",
            "type": "function"
        },
        {
            "inputs": [],
            "name": "name",
            "outputs": [
                {
                    "internalType": "string",
                    "name": "",
                    "type": "string"
                }
            ],
            "stateMutability": "view",
            "type": "function"
        },
        {
            "inputs": [],
            "name": "owner",
            "outputs": [
                {
                    "internalType": "address",
                    "name": "",
                    "type": "address"
                }
            ],
            "stateMutability": "view",
            "type": "function"
        },
        {
            "inputs": [
                {
                    "internalType": "enum NFTLocked.NFTType",
                    "name": "_nftType",
                    "type": "uint8"
                },
                {
                    "internalType": "uint256",
                    "name": "_amount",
                    "type": "uint256"
                }
            ],
            "name": "purchaseNFT",
            "outputs": [],
            "stateMutability": "payable",
            "type": "function"
        },
        {
            "inputs": [],
            "name": "redeem",
            "outputs": [],
            "stateMutability": "nonpayable",
            "type": "function"
        },
        {
            "inputs": [
                {
                    "internalType": "address",
                    "name": "_user",
                    "type": "address"
                },
                {
                    "internalType": "enum NFTLocked.NFTType",
                    "name": "_nftType",
                    "type": "uint8"
                },
                {
                    "internalType": "uint256[]",
                    "name": "_tier",
                    "type": "uint256[]"
                }
            ],
            "name": "registerUser",
            "outputs": [],
            "stateMutability": "nonpayable",
            "type": "function"
        },
        {
            "inputs": [
                {
                    "internalType": "address",
                    "name": "_user",
                    "type": "address"
                }
            ],
            "name": "removeWhitelist",
            "outputs": [],
            "stateMutability": "nonpayable",
            "type": "function"
        },
        {
            "inputs": [],
            "name": "renounceOwnership",
            "outputs": [],
            "stateMutability": "nonpayable",
            "type": "function"
        },
        {
            "inputs": [
                {
                    "internalType": "address",
                    "name": "from",
                    "type": "address"
                },
                {
                    "internalType": "address",
                    "name": "to",
                    "type": "address"
                },
                {
                    "internalType": "uint256[]",
                    "name": "ids",
                    "type": "uint256[]"
                },
                {
                    "internalType": "uint256[]",
                    "name": "values",
                    "type": "uint256[]"
                },
                {
                    "internalType": "bytes",
                    "name": "data",
                    "type": "bytes"
                }
            ],
            "name": "safeBatchTransferFrom",
            "outputs": [],
            "stateMutability": "nonpayable",
            "type": "function"
        },
        {
            "inputs": [
                {
                    "internalType": "address",
                    "name": "from",
                    "type": "address"
                },
                {
                    "internalType": "address",
                    "name": "to",
                    "type": "address"
                },
                {
                    "internalType": "uint256",
                    "name": "id",
                    "type": "uint256"
                },
                {
                    "internalType": "uint256",
                    "name": "value",
                    "type": "uint256"
                },
                {
                    "internalType": "bytes",
                    "name": "data",
                    "type": "bytes"
                }
            ],
            "name": "safeTransferFrom",
            "outputs": [],
            "stateMutability": "nonpayable",
            "type": "function"
        },
        {
            "inputs": [
                {
                    "internalType": "address",
                    "name": "operator",
                    "type": "address"
                },
                {
                    "internalType": "bool",
                    "name": "approved",
                    "type": "bool"
                }
            ],
            "name": "setApprovalForAll",
            "outputs": [],
            "stateMutability": "nonpayable",
            "type": "function"
        },
        {
            "inputs": [
                {
                    "internalType": "string",
                    "name": "_blackNFTUrl",
                    "type": "string"
                }
            ],
            "name": "setBlackNFTUrl",
            "outputs": [],
            "stateMutability": "nonpayable",
            "type": "function"
        },
        {
            "inputs": [
                {
                    "internalType": "string",
                    "name": "_goldNFTUrl",
                    "type": "string"
                }
            ],
            "name": "setGoldNFTUrl",
            "outputs": [],
            "stateMutability": "nonpayable",
            "type": "function"
        },
        {
            "inputs": [
                {
                    "internalType": "uint256",
                    "name": "_tier",
                    "type": "uint256"
                }
            ],
            "name": "startTier",
            "outputs": [],
            "stateMutability": "nonpayable",
            "type": "function"
        },
        {
            "inputs": [
                {
                    "internalType": "bytes4",
                    "name": "interfaceId",
                    "type": "bytes4"
                }
            ],
            "name": "supportsInterface",
            "outputs": [
                {
                    "internalType": "bool",
                    "name": "",
                    "type": "bool"
                }
            ],
            "stateMutability": "view",
            "type": "function"
        },
        {
            "inputs": [],
            "name": "symbol",
            "outputs": [
                {
                    "internalType": "string",
                    "name": "",
                    "type": "string"
                }
            ],
            "stateMutability": "view",
            "type": "function"
        },
        {
            "inputs": [
                {
                    "internalType": "address",
                    "name": "",
                    "type": "address"
                }
            ],
            "name": "tier1NFTCount",
            "outputs": [
                {
                    "internalType": "uint256",
                    "name": "",
                    "type": "uint256"
                }
            ],
            "stateMutability": "view",
            "type": "function"
        },
        {
            "inputs": [
                {
                    "internalType": "address",
                    "name": "",
                    "type": "address"
                }
            ],
            "name": "tier2NFTCount",
            "outputs": [
                {
                    "internalType": "uint256",
                    "name": "",
                    "type": "uint256"
                }
            ],
            "stateMutability": "view",
            "type": "function"
        },
        {
            "inputs": [
                {
                    "internalType": "uint256",
                    "name": "",
                    "type": "uint256"
                }
            ],
            "name": "tierActiveStatus",
            "outputs": [
                {
                    "internalType": "bool",
                    "name": "",
                    "type": "bool"
                }
            ],
            "stateMutability": "view",
            "type": "function"
        },
        {
            "inputs": [
                {
                    "internalType": "uint256",
                    "name": "",
                    "type": "uint256"
                }
            ],
            "name": "tierDurations",
            "outputs": [
                {
                    "internalType": "uint256",
                    "name": "",
                    "type": "uint256"
                }
            ],
            "stateMutability": "view",
            "type": "function"
        },
        {
            "inputs": [
                {
                    "internalType": "uint256",
                    "name": "",
                    "type": "uint256"
                }
            ],
            "name": "tierStartTimes",
            "outputs": [
                {
                    "internalType": "uint256",
                    "name": "",
                    "type": "uint256"
                }
            ],
            "stateMutability": "view",
            "type": "function"
        },
        {
            "inputs": [
                {
                    "internalType": "address",
                    "name": "",
                    "type": "address"
                },
                {
                    "internalType": "uint256",
                    "name": "",
                    "type": "uint256"
                }
            ],
            "name": "tierWhitelist",
            "outputs": [
                {
                    "internalType": "bool",
                    "name": "",
                    "type": "bool"
                }
            ],
            "stateMutability": "view",
            "type": "function"
        },
        {
            "inputs": [],
            "name": "totalSupply",
            "outputs": [
                {
                    "internalType": "uint256",
                    "name": "",
                    "type": "uint256"
                }
            ],
            "stateMutability": "view",
            "type": "function"
        },
        {
            "inputs": [
                {
                    "internalType": "address",
                    "name": "to",
                    "type": "address"
                },
                {
                    "internalType": "uint256",
                    "name": "value",
                    "type": "uint256"
                }
            ],
            "name": "transfer",
            "outputs": [
                {
                    "internalType": "bool",
                    "name": "",
                    "type": "bool"
                }
            ],
            "stateMutability": "nonpayable",
            "type": "function"
        },
        {
            "inputs": [
                {
                    "internalType": "address",
                    "name": "from",
                    "type": "address"
                },
                {
                    "internalType": "address",
                    "name": "to",
                    "type": "address"
                },
                {
                    "internalType": "uint256",
                    "name": "value",
                    "type": "uint256"
                }
            ],
            "name": "transferFrom",
            "outputs": [
                {
                    "internalType": "bool",
                    "name": "",
                    "type": "bool"
                }
            ],
            "stateMutability": "nonpayable",
            "type": "function"
        },
        {
            "inputs": [
                {
                    "internalType": "address",
                    "name": "newOwner",
                    "type": "address"
                }
            ],
            "name": "transferOwnership",
            "outputs": [],
            "stateMutability": "nonpayable",
            "type": "function"
        },
        {
            "inputs": [
                {
                    "internalType": "uint256",
                    "name": "",
                    "type": "uint256"
                }
            ],
            "name": "uri",
            "outputs": [
                {
                    "internalType": "string",
                    "name": "",
                    "type": "string"
                }
            ],
            "stateMutability": "view",
            "type": "function"
        },
        {
            "inputs": [
                {
                    "internalType": "address",
                    "name": "",
                    "type": "address"
                }
            ],
            "name": "userNFTs",
            "outputs": [
                {
                    "internalType": "enum NFTLocked.NFTType",
                    "name": "nftType",
                    "type": "uint8"
                }
            ],
            "stateMutability": "view",
            "type": "function"
        },
        {
            "inputs": [
                {
                    "internalType": "address",
                    "name": "",
                    "type": "address"
                }
            ],
            "name": "whitelistCounter",
            "outputs": [
                {
                    "internalType": "uint256",
                    "name": "",
                    "type": "uint256"
                }
            ],
            "stateMutability": "view",
            "type": "function"
        },
        {
            "inputs": [
                {
                    "internalType": "address",
                    "name": "_user",
                    "type": "address"
                }
            ],
            "name": "whitelistUser",
            "outputs": [],
            "stateMutability": "nonpayable",
            "type": "function"
        },
        {
            "inputs": [],
            "name": "withdraw",
            "outputs": [],
            "stateMutability": "nonpayable",
            "type": "function"
        }
    ],
    "bytecode": "6080604052601480546001600160a01b031916735e52dec931ffb32f609681b8438a51c675cc232d1790553480156200003757600080fd5b50604051620034c6380380620034c68339810160408190526200005a9162000324565b33604051806040016040528060098152602001682a32b9ba2a37b5b2b760b91b815250604051806040016040528060038152602001621514d560ea1b81525060405180602001604052806000815250620000ba81620001fb60201b60201c565b506006620000c983826200041d565b506007620000d882826200041d565b5050506001600160a01b0381166200010a57604051631e4fbdf760e01b81526000600482015260240160405180910390fd5b62000115816200020d565b5060126200012483826200041d565b5060136200013382826200041d565b5050600a602052506107087fbbc70db1b6c7afd11e79c0fb0051300458f1a3acb8ee9789d9b6b26c61ad9bc78190557fbff4442b8ed600beeb8e26b1279a0f0d14c6edfaec26d968ee13c86f7d4c2ba88190557fa856840544dc26124927add067d799967eac11be13e14d82cc281ea46fa397598190557fe1eb2b2161a492c07c5a334e48012567cba93ec021043f53c1955516a3c5a84181905560056000527ff35035bc2b01d44bd35a1dcdc552315cffb73da35cfd60570b7b777f98036f9f55620004e9565b60026200020982826200041d565b5050565b600880546001600160a01b038381166001600160a01b0319831681179093556040519116919082907f8be0079c531659141344cd1fd0a4f28419497f9722a3daafe3b4186f6b6457e090600090a35050565b634e487b7160e01b600052604160045260246000fd5b600082601f8301126200028757600080fd5b81516001600160401b0380821115620002a457620002a46200025f565b604051601f8301601f19908116603f01168101908282118183101715620002cf57620002cf6200025f565b81604052838152602092508683858801011115620002ec57600080fd5b600091505b83821015620003105785820183015181830184015290820190620002f1565b600093810190920192909252949350505050565b600080604083850312156200033857600080fd5b82516001600160401b03808211156200035057600080fd5b6200035e8683870162000275565b935060208501519150808211156200037557600080fd5b50620003848582860162000275565b9150509250929050565b600181811c90821680620003a357607f821691505b602082108103620003c457634e487b7160e01b600052602260045260246000fd5b50919050565b601f8211156200041857600081815260208120601f850160051c81016020861015620003f35750805b601f850160051c820191505b818110156200041457828155600101620003ff565b5050505b505050565b81516001600160401b038111156200043957620004396200025f565b62000451816200044a84546200038e565b84620003ca565b602080601f831160018114620004895760008415620004705750858301515b600019600386901b1c1916600185901b17855562000414565b600085815260208120601f198616915b82811015620004ba5788860151825594840194600190910190840162000499565b5085821015620004d95787850151600019600388901b60f8161c191681555b5050505050600190811b01905550565b612fcd80620004f96000396000f3fe60806040526004361061025b5760003560e01c806370a0823111610144578063a9059cbb116100b6578063dd62ed3e1161007a578063dd62ed3e1461077d578063df4f2f30146107c3578063e5365d63146107f3578063e985e9c51461082e578063f242432a1461084e578063f2fde38b1461086e57600080fd5b8063a9059cbb146106bb578063be040fb0146106db578063c3c5a547146106f0578063cc8fea7e14610720578063d198ce6a1461074057600080fd5b8063936b560411610108578063936b5604146105ec57806395d89b411461060c5780639b08f33c14610621578063a0712d681461064e578063a22cb4651461066e578063a2fd4b601461068e57600080fd5b806370a082311461052c578063715018a61461056257806378c8cda7146105775780637b287e2e146105975780638da5cb5b146105c457600080fd5b80631aeb113f116101dd5780633ccfd60b116101a15780633ccfd60b1461046857806340ea68b21461047d5780634a4c560d146104aa5780634e1273f4146104ca5780636d641113146104f7578063704bd93c1461050c57600080fd5b80631aeb113f146103cc578063229acf9e146103ec57806323b872dd1461040c5780632eb2c2d61461042c578063313ce5671461044c57600080fd5b8063095ea7b311610224578063095ea7b3146103275780630e89341c14610347578063163f75221461036757806317b591cf146103a257806318160ddd146103b757600080fd5b8062fdd58e1461026057806301ffc9a714610293578063041a72dd146102c357806305ce3c60146102d857806306fdde0314610305575b600080fd5b34801561026c57600080fd5b5061028061027b366004612624565b61088e565b6040519081526020015b60405180910390f35b34801561029f57600080fd5b506102b36102ae366004612664565b6108b6565b604051901515815260200161028a565b6102d66102d1366004612697565b610906565b005b3480156102e457600080fd5b506102806102f33660046126b3565b600b6020526000908152604090205481565b34801561031157600080fd5b5061031a610cb8565b60405161028a9190612714565b34801561033357600080fd5b506102b3610342366004612624565b610d4a565b34801561035357600080fd5b5061031a610362366004612727565b610d62565b34801561037357600080fd5b506102b36103823660046126b3565b6001600160a01b0316600090815260096020526040902060010154151590565b3480156103ae57600080fd5b5061031a610df6565b3480156103c357600080fd5b50600554610280565b3480156103d857600080fd5b506102d66103e7366004612740565b610e84565b3480156103f857600080fd5b506102d6610407366004612727565b610e9e565b34801561041857600080fd5b506102b36104273660046127b2565b610f06565b34801561043857600080fd5b506102d6610447366004612934565b610f2a565b34801561045857600080fd5b506040516012815260200161028a565b34801561047457600080fd5b506102d6610f91565b34801561048957600080fd5b50610280610498366004612727565b600a6020526000908152604090205481565b3480156104b657600080fd5b506102d66104c53660046126b3565b61101c565b3480156104d657600080fd5b506104ea6104e53660046129de565b611128565b60405161028a9190612ad9565b34801561050357600080fd5b5061031a6111fd565b34801561051857600080fd5b506102d6610527366004612727565b61120a565b34801561053857600080fd5b506102806105473660046126b3565b6001600160a01b031660009081526003602052604090205490565b34801561056e57600080fd5b506102d66112da565b34801561058357600080fd5b506102d66105923660046126b3565b6112ee565b3480156105a357600080fd5b506102806105b2366004612727565b600f6020526000908152604090205481565b3480156105d057600080fd5b506008546040516001600160a01b03909116815260200161028a565b3480156105f857600080fd5b506102d6610607366004612740565b611357565b34801561061857600080fd5b5061031a61136c565b34801561062d57600080fd5b5061028061063c3660046126b3565b600e6020526000908152604090205481565b34801561065a57600080fd5b506102d6610669366004612727565b61137b565b34801561067a57600080fd5b506102d6610689366004612afa565b6113a3565b34801561069a57600080fd5b506102806106a93660046126b3565b600d6020526000908152604090205481565b3480156106c757600080fd5b506102b36106d6366004612624565b6113ae565b3480156106e757600080fd5b506102d66113bc565b3480156106fc57600080fd5b506102b361070b3660046126b3565b60106020526000908152604090205460ff1681565b34801561072c57600080fd5b506102d661073b366004612b31565b6118a3565b34801561074c57600080fd5b5061077061075b3660046126b3565b60096020526000908152604090205460ff1681565b60405161028a9190612bc7565b34801561078957600080fd5b50610280610798366004612bd5565b6001600160a01b03918216600090815260046020908152604080832093909416825291909152205490565b3480156107cf57600080fd5b506102b36107de366004612727565b60116020526000908152604090205460ff1681565b3480156107ff57600080fd5b506102b361080e366004612624565b600c60209081526000928352604080842090915290825290205460ff1681565b34801561083a57600080fd5b506102b3610849366004612bd5565b611a13565b34801561085a57600080fd5b506102d6610869366004612c08565b611a41565b34801561087a57600080fd5b506102d66108893660046126b3565b611aa0565b6000818152602081815260408083206001600160a01b03861684529091529020545b92915050565b60006001600160e01b03198216636cdb3d1360e11b14806108e757506001600160e01b031982166303a24d0760e21b145b806108b057506301ffc9a760e01b6001600160e01b03198316146108b0565b336000908152600960205260409020600101546109605760405162461bcd60e51b8152602060048201526013602482015272155cd95c881b9bdd081c9959da5cdd195c9959606a1b60448201526064015b60405180910390fd5b336000908152600b60205260409020546109b35760405162461bcd60e51b8152602060048201526014602482015273155cd95c881b9bdd081dda1a5d195b1a5cdd195960621b6044820152606401610957565b60006109bd611ade565b905080600114806109ce5750806002145b610a1a5760405162461bcd60e51b815260206004820152601960248201527f496e76616c6964207469657220666f72207075726368617365000000000000006044820152606401610957565b60008111610a605760405162461bcd60e51b8152602060048201526013602482015272139bc81d1a595c881cdd185c9d1959081e595d606a1b6044820152606401610957565b60008181526011602052604090205460ff16610ab05760405162461bcd60e51b815260206004820152600f60248201526e54696572206e6f742061637469766560881b6044820152606401610957565b60008082600103610b28576000856002811115610acf57610acf612b8f565b14610ae157662386f26fc10000610aea565b66470de4df8200005b336000908152600d60205260408120805466ffffffffffffff939093169450600593508692909190610b1d908490612c83565b90915550610b909050565b6000856002811115610b3c57610b3c612b8f565b14610b4e57662386f26fc10000610b57565b66470de4df8200005b336000908152600e60205260408120805466ffffffffffffff939093169450600393508692909190610b8a908490612c83565b90915550505b6000610b9c8584612c96565b905080341015610be35760405162461bcd60e51b8152602060048201526012602482015271496e73756666696369656e742066756e647360701b6044820152606401610957565b6000610bef3388611b38565b905082610bfc8783612c83565b1115610c435760405162461bcd60e51b8152602060048201526016602482015275141d5c98da185cd9481b1a5b5a5d081c995858da195960521b6044820152606401610957565b610c6f33886002811115610c5957610c59612b8f565b8860405180602001604052806000815250611b90565b81341115610caf57336108fc610c858434612cad565b6040518115909202916000818181858888f19350505050158015610cad573d6000803e3d6000fd5b505b50505050505050565b606060068054610cc790612cc0565b80601f0160208091040260200160405190810160405280929190818152602001828054610cf390612cc0565b8015610d405780601f10610d1557610100808354040283529160200191610d40565b820191906000526020600020905b815481529060010190602001808311610d2357829003601f168201915b5050505050905090565b600033610d58818585611bed565b5060019392505050565b606060028054610d7190612cc0565b80601f0160208091040260200160405190810160405280929190818152602001828054610d9d90612cc0565b8015610dea5780601f10610dbf57610100808354040283529160200191610dea565b820191906000526020600020905b815481529060010190602001808311610dcd57829003601f168201915b50505050509050919050565b60128054610e0390612cc0565b80601f0160208091040260200160405190810160405280929190818152602001828054610e2f90612cc0565b8015610e7c5780601f10610e5157610100808354040283529160200191610e7c565b820191906000526020600020905b815481529060010190602001808311610e5f57829003601f168201915b505050505081565b610e8c611bfa565b6013610e99828483612d3a565b505050565b60008181526011602052604090205460ff16610eee5760405162461bcd60e51b815260206004820152600f60248201526e54696572206e6f742061637469766560881b6044820152606401610957565b6000908152601160205260409020805460ff19169055565b600033610f14858285611c27565b610f1f858585611ca5565b506001949350505050565b336001600160a01b0386168114801590610f4b5750610f498682611a13565b155b15610f7c5760405163711bec9160e11b81526001600160a01b03808316600483015287166024820152604401610957565b610f898686868686611d04565b505050505050565b610f99611bfa565b4780610fde5760405162461bcd60e51b81526020600482015260146024820152734e6f2066756e647320746f20776974686472617760601b6044820152606401610957565b6008546040516001600160a01b039091169082156108fc029083906000818181858888f19350505050158015611018573d6000803e3d6000fd5b5050565b6001600160a01b03811660009081526009602090815260408083206001018054825181850281018501909352808352919290919083018282801561107f57602002820191906000526020600020905b81548152602001906001019080831161106b575b5050505050905060005b8151811015610e99576001600160a01b0383166000908152600c602052604081208351600192908590859081106110c2576110c2612dfa565b60209081029190910181015182528181019290925260409081016000908120805460ff1916941515949094179093556001600160a01b0386168352600b909152812080549161111083612e10565b9190505550808061112090612e10565b915050611089565b606081518351146111595781518351604051635b05999160e01b815260048101929092526024820152604401610957565b6000835167ffffffffffffffff811115611175576111756127ee565b60405190808252806020026020018201604052801561119e578160200160208202803683370190505b50905060005b84518110156111f5576020808202860101516111c89060208084028701015161088e565b8282815181106111da576111da612dfa565b60209081029190910101526111ee81612e10565b90506111a4565b509392505050565b60138054610e0390612cc0565b611212611bfa565b60018110158015611224575060058111155b61125f5760405162461bcd60e51b815260206004820152600c60248201526b24b73b30b634b2103a34b2b960a11b6044820152606401610957565b6000818152600f6020526040902054156112b25760405162461bcd60e51b8152602060048201526014602482015273151a595c88185b1c9958591e481cdd185c9d195960621b6044820152606401610957565b6000908152600f6020908152604080832042905560119091529020805460ff19166001179055565b6112e2611bfa565b6112ec6000611d6b565b565b6112f6611bfa565b6001600160a01b0381166000908152600b602052604081205560015b60058111611018576001600160a01b0382166000908152600c602090815260408083208484529091529020805460ff191690558061134f81612e10565b915050611312565b61135f611bfa565b6012610e99828483612d3a565b606060078054610cc790612cc0565b611383611bfa565b600061139782670de0b6b3a7640000612c96565b90506110183382611dbd565b611018338383611df3565b600033610d58818585611ca5565b60006113c6611ade565b9050600381101580156113da575060058111155b6114265760405162461bcd60e51b815260206004820152601b60248201527f496e76616c6964207469657220666f7220726564656d7074696f6e00000000006044820152606401610957565b3360009081526009602052604080822081518083019092528054829060ff16600281111561145657611456612b8f565b600281111561146757611467612b8f565b8152602001600182018054806020026020016040519081016040528092919081815260200182805480156114ba57602002820191906000526020600020905b8154815260200190600101908083116114a6575b505050505081525050905060008060028111156114d9576114d9612b8f565b825160028111156114ec576114ec612b8f565b146114f85760326114fb565b60645b60ff169050600061150b33611e8a565b90506000606461151c846032612c96565b6115269190612e29565b90506000606461153785600a612c96565b6115419190612e29565b905060006064611552866028612c96565b61155c9190612e29565b9050600060035b88811015611601576000818152600f602052604081205490036115ef5780600303611599576115928583612c83565b91506115ef565b806004036115ef5760036000908152600f6020527f45f76dafbbad695564362934e24d72eedc57f9fc1a65f39bca62176cc82968285490036115e2576115df8583612c83565b91505b6115ec8483612c83565b91505b806115f981612e10565b915050611563565b506000886003036116135750836116f0565b886004036116635760036000908152600f6020527f45f76dafbbad695564362934e24d72eedc57f9fc1a65f39bca62176cc82968285490036116525750835b61165c8482612c83565b90506116f0565b886005036116f05760036000908152600f6020527f45f76dafbbad695564362934e24d72eedc57f9fc1a65f39bca62176cc82968285490036116ac576116a98583612c83565b91505b60046000908152600f6020527f367ccd2d0ac16bf7110a5dffe0801fdc9452a95a1adb7e1a12fe97dd3e9a4edd5490036116ed576116ea8483612c83565b91505b50815b6116fa8282612c83565b90506000606461170a8989612c96565b6117149190612e29565b9050600060646117248484612c96565b61172e9190612e29565b60145490915081906001600160a01b03166370a082316117566008546001600160a01b031690565b6040516001600160e01b031960e084901b1681526001600160a01b039091166004820152602401602060405180830381865afa15801561179a573d6000803e3d6000fd5b505050506040513d601f19601f820116820180604052508101906117be9190612e4b565b10156118205760405162461bcd60e51b815260206004820152602b60248201527f496e73756666696369656e74205453542062616c616e636520696e206f776e6560448201526a1c89dcc81858d8dbdd5b9d60aa1b6064820152608401610957565b60145460405163a9059cbb60e01b8152336004820152602481018390526001600160a01b039091169063a9059cbb906044016020604051808303816000875af1158015611871573d6000803e3d6000fd5b505050506040513d601f19601f820116820180604052508101906118959190612e64565b505050505050505050505050565b6001600160a01b0383166000908152600960205260409020600101541561190c5760405162461bcd60e51b815260206004820152601760248201527f5573657220616c726561647920726567697374657265640000000000000000006044820152606401610957565b60028151111561194d5760405162461bcd60e51b815260206004820152600c60248201526b24b73b30b634b2103a34b2b960a11b6044820152606401610957565b604051806040016040528083600281111561196a5761196a612b8f565b815260209081018390526001600160a01b038516600090815260099091526040902081518154829060ff191660018360028111156119aa576119aa612b8f565b021790555060208281015180516119c792600185019201906125a8565b50905050826001600160a01b03167fceed638d834965f3e4c92cc251346928bf9d207bcce6d1b4d6ce8ac19c15b2ad8383604051611a06929190612e81565b60405180910390a2505050565b6001600160a01b03918216600090815260016020908152604080832093909416825291909152205460ff1690565b336001600160a01b0386168114801590611a625750611a608682611a13565b155b15611a935760405163711bec9160e11b81526001600160a01b03808316600483015287166024820152604401610957565b610f898686868686611eb8565b611aa8611bfa565b6001600160a01b038116611ad257604051631e4fbdf760e01b815260006004820152602401610957565b611adb81611d6b565b50565b60008060015b60058111611b32576000818152600f602052604090205415801590611b17575060008181526011602052604090205460ff165b15611b20578091505b80611b2a81612e10565b915050611ae4565b50919050565b600080826002811115611b4d57611b4d612b8f565b03611b7157506001600160a01b0382166000908152600d60205260409020546108b0565b506001600160a01b0382166000908152600e60205260409020546108b0565b6001600160a01b038416611bba57604051632bfa23e760e11b815260006004820152602401610957565b60408051600180825260208201869052818301908152606082018590526080820190925290610f89600087848487611f39565b610e998383836001611f8c565b6008546001600160a01b031633146112ec5760405163118cdaa760e01b8152336004820152602401610957565b6001600160a01b038381166000908152600460209081526040808320938616835292905220546000198114611c9f5781811015611c9057604051637dc7a0d960e11b81526001600160a01b03841660048201526024810182905260448101839052606401610957565b611c9f84848484036000611f8c565b50505050565b6001600160a01b038316611ccf57604051634b637e8f60e11b815260006004820152602401610957565b6001600160a01b038216611cf95760405163ec442f0560e01b815260006004820152602401610957565b610e99838383612061565b6001600160a01b038416611d2e57604051632bfa23e760e11b815260006004820152602401610957565b6001600160a01b038516611d5757604051626a0d4560e21b815260006004820152602401610957565b611d648585858585611f39565b5050505050565b600880546001600160a01b038381166001600160a01b0319831681179093556040519116919082907f8be0079c531659141344cd1fd0a4f28419497f9722a3daafe3b4186f6b6457e090600090a35050565b6001600160a01b038216611de75760405163ec442f0560e01b815260006004820152602401610957565b61101860008383612061565b6001600160a01b038216611e1c5760405162ced3e160e81b815260006004820152602401610957565b6001600160a01b03838116600081815260016020908152604080832094871680845294825291829020805460ff191686151590811790915591519182527f17307eab39ab6107e8899845ad3d59bd9653f200f220920489ca2b5937696c3191015b60405180910390a3505050565b6001600160a01b0381166000908152600e6020908152604080832054600d9092528220546108b09190612c83565b6001600160a01b038416611ee257604051632bfa23e760e11b815260006004820152602401610957565b6001600160a01b038516611f0b57604051626a0d4560e21b815260006004820152602401610957565b60408051600180825260208201869052818301908152606082018590526080820190925290610caf87878484875b611f458585858561217e565b6001600160a01b03841615611d645782513390600103611f7e5760208481015190840151611f7783898985858961239b565b5050610f89565b610f898187878787876124bf565b6001600160a01b038416611fb65760405163e602df0560e01b815260006004820152602401610957565b6001600160a01b038316611fe057604051634a1406b160e11b815260006004820152602401610957565b6001600160a01b0380851660009081526004602090815260408083209387168352929052208290558015611c9f57826001600160a01b0316846001600160a01b03167f8c5be1e5ebec7d5bd14f71427d1e84f3dd0314c0f7b2291e5b200ac8c7c3b9258460405161205391815260200190565b60405180910390a350505050565b6001600160a01b03831661208c5780600560008282546120819190612c83565b909155506120fe9050565b6001600160a01b038316600090815260036020526040902054818110156120df5760405163391434e360e21b81526001600160a01b03851660048201526024810182905260448101839052606401610957565b6001600160a01b03841660009081526003602052604090209082900390555b6001600160a01b03821661211a57600580548290039055612139565b6001600160a01b03821660009081526003602052604090208054820190555b816001600160a01b0316836001600160a01b03167fddf252ad1be2c89b69c2b068fc378daa952ba7f163c4a11628f55a4df523b3ef83604051611e7d91815260200190565b80518251146121ad5781518151604051635b05999160e01b815260048101929092526024820152604401610957565b3360005b83518110156122bc576020818102858101820151908501909101516001600160a01b03881615612264576000828152602081815260408083206001600160a01b038c1684529091529020548181101561223d576040516303dee4c560e01b81526001600160a01b038a166004820152602481018290526044810183905260648101849052608401610957565b6000838152602081815260408083206001600160a01b038d16845290915290209082900390555b6001600160a01b038716156122a9576000828152602081815260408083206001600160a01b038b168452909152812080548392906122a3908490612c83565b90915550505b5050806122b590612e10565b90506121b1565b50825160010361233d5760208301516000906020840151909150856001600160a01b0316876001600160a01b0316846001600160a01b03167fc3d58168c5ae7397731d063d5bbf3d657854427343f4c083240f7aacaa2d0f62858560405161232e929190918252602082015260400190565b60405180910390a45050611d64565b836001600160a01b0316856001600160a01b0316826001600160a01b03167f4a39dc06d4c0dbc64b70af90fd698a233a518aa5d07e595d983b8c0526c8f7fb868660405161238c929190612ea9565b60405180910390a45050505050565b6001600160a01b0384163b15610f895760405163f23a6e6160e01b81526001600160a01b0385169063f23a6e61906123df9089908990889088908890600401612ed7565b6020604051808303816000875af192505050801561241a575060408051601f3d908101601f1916820190925261241791810190612f1c565b60015b612483573d808015612448576040519150601f19603f3d011682016040523d82523d6000602084013e61244d565b606091505b50805160000361247b57604051632bfa23e760e11b81526001600160a01b0386166004820152602401610957565b805181602001fd5b6001600160e01b0319811663f23a6e6160e01b14610caf57604051632bfa23e760e11b81526001600160a01b0386166004820152602401610957565b6001600160a01b0384163b15610f895760405163bc197c8160e01b81526001600160a01b0385169063bc197c81906125039089908990889088908890600401612f39565b6020604051808303816000875af192505050801561253e575060408051601f3d908101601f1916820190925261253b91810190612f1c565b60015b61256c573d808015612448576040519150601f19603f3d011682016040523d82523d6000602084013e61244d565b6001600160e01b0319811663bc197c8160e01b14610caf57604051632bfa23e760e11b81526001600160a01b0386166004820152602401610957565b8280548282559060005260206000209081019282156125e3579160200282015b828111156125e35782518255916020019190600101906125c8565b506125ef9291506125f3565b5090565b5b808211156125ef57600081556001016125f4565b80356001600160a01b038116811461261f57600080fd5b919050565b6000806040838503121561263757600080fd5b61264083612608565b946020939093013593505050565b6001600160e01b031981168114611adb57600080fd5b60006020828403121561267657600080fd5b81356126818161264e565b9392505050565b80356003811061261f57600080fd5b600080604083850312156126aa57600080fd5b61264083612688565b6000602082840312156126c557600080fd5b61268182612608565b6000815180845260005b818110156126f4576020818501810151868301820152016126d8565b506000602082860101526020601f19601f83011685010191505092915050565b60208152600061268160208301846126ce565b60006020828403121561273957600080fd5b5035919050565b6000806020838503121561275357600080fd5b823567ffffffffffffffff8082111561276b57600080fd5b818501915085601f83011261277f57600080fd5b81358181111561278e57600080fd5b8660208285010111156127a057600080fd5b60209290920196919550909350505050565b6000806000606084860312156127c757600080fd5b6127d084612608565b92506127de60208501612608565b9150604084013590509250925092565b634e487b7160e01b600052604160045260246000fd5b604051601f8201601f1916810167ffffffffffffffff8111828210171561282d5761282d6127ee565b604052919050565b600067ffffffffffffffff82111561284f5761284f6127ee565b5060051b60200190565b600082601f83011261286a57600080fd5b8135602061287f61287a83612835565b612804565b82815260059290921b8401810191818101908684111561289e57600080fd5b8286015b848110156128b957803583529183019183016128a2565b509695505050505050565b600082601f8301126128d557600080fd5b813567ffffffffffffffff8111156128ef576128ef6127ee565b612902601f8201601f1916602001612804565b81815284602083860101111561291757600080fd5b816020850160208301376000918101602001919091529392505050565b600080600080600060a0868803121561294c57600080fd5b61295586612608565b945061296360208701612608565b9350604086013567ffffffffffffffff8082111561298057600080fd5b61298c89838a01612859565b945060608801359150808211156129a257600080fd5b6129ae89838a01612859565b935060808801359150808211156129c457600080fd5b506129d1888289016128c4565b9150509295509295909350565b600080604083850312156129f157600080fd5b823567ffffffffffffffff80821115612a0957600080fd5b818501915085601f830112612a1d57600080fd5b81356020612a2d61287a83612835565b82815260059290921b84018101918181019089841115612a4c57600080fd5b948201945b83861015612a7157612a6286612608565b82529482019490820190612a51565b96505086013592505080821115612a8757600080fd5b50612a9485828601612859565b9150509250929050565b600081518084526020808501945080840160005b83811015612ace57815187529582019590820190600101612ab2565b509495945050505050565b6020815260006126816020830184612a9e565b8015158114611adb57600080fd5b60008060408385031215612b0d57600080fd5b612b1683612608565b91506020830135612b2681612aec565b809150509250929050565b600080600060608486031215612b4657600080fd5b612b4f84612608565b9250612b5d60208501612688565b9150604084013567ffffffffffffffff811115612b7957600080fd5b612b8586828701612859565b9150509250925092565b634e487b7160e01b600052602160045260246000fd5b60038110612bc357634e487b7160e01b600052602160045260246000fd5b9052565b602081016108b08284612ba5565b60008060408385031215612be857600080fd5b612bf183612608565b9150612bff60208401612608565b90509250929050565b600080600080600060a08688031215612c2057600080fd5b612c2986612608565b9450612c3760208701612608565b93506040860135925060608601359150608086013567ffffffffffffffff811115612c6157600080fd5b6129d1888289016128c4565b634e487b7160e01b600052601160045260246000fd5b808201808211156108b0576108b0612c6d565b80820281158282048414176108b0576108b0612c6d565b818103818111156108b0576108b0612c6d565b600181811c90821680612cd457607f821691505b602082108103611b3257634e487b7160e01b600052602260045260246000fd5b601f821115610e9957600081815260208120601f850160051c81016020861015612d1b5750805b601f850160051c820191505b81811015610f8957828155600101612d27565b67ffffffffffffffff831115612d5257612d526127ee565b612d6683612d608354612cc0565b83612cf4565b6000601f841160018114612d9a5760008515612d825750838201355b600019600387901b1c1916600186901b178355611d64565b600083815260209020601f19861690835b82811015612dcb5786850135825560209485019460019092019101612dab565b5086821015612de85760001960f88860031b161c19848701351681555b505060018560011b0183555050505050565b634e487b7160e01b600052603260045260246000fd5b600060018201612e2257612e22612c6d565b5060010190565b600082612e4657634e487b7160e01b600052601260045260246000fd5b500490565b600060208284031215612e5d57600080fd5b5051919050565b600060208284031215612e7657600080fd5b815161268181612aec565b612e8b8184612ba5565b604060208201526000612ea16040830184612a9e565b949350505050565b604081526000612ebc6040830185612a9e565b8281036020840152612ece8185612a9e565b95945050505050565b6001600160a01b03868116825285166020820152604081018490526060810183905260a060808201819052600090612f11908301846126ce565b979650505050505050565b600060208284031215612f2e57600080fd5b81516126818161264e565b6001600160a01b0386811682528516602082015260a060408201819052600090612f6590830186612a9e565b8281036060840152612f778186612a9e565b90508281036080840152612f8b81856126ce565b9897505050505050505056fea2646970667358221220d31163c671ae1de8c5fc82e7f132d8739bbe9cfc07f088fa3104cae92cf22e2c64736f6c63430008130033",
    "sourcePath": "/home/webclues/Pragati_Workspace/ERC1155/Nft/src/NFT.sol",
    "compiler": {
        "name": "solc",
        "version": "0.8.19+commit.7dd6d404"
    },
    "functionHashes": {
        "allowance(address,address)": "dd62ed3e",
        "approve(address,uint256)": "095ea7b3",
        "balanceOf(address)": "70a08231",
        "balanceOf(address,uint256)": "00fdd58e",
        "balanceOfBatch(address[],uint256[])": "4e1273f4",
        "blackNFTUrl()": "6d641113",
        "decimals()": "313ce567",
        "endTier(uint256)": "229acf9e",
        "goldNFTUrl()": "17b591cf",
        "isApprovedForAll(address,address)": "e985e9c5",
        "isRegistered(address)": "c3c5a547",
        "isUserRegistered(address)": "163f7522",
        "mint(uint256)": "a0712d68",
        "name()": "06fdde03",
        "owner()": "8da5cb5b",
        "purchaseNFT(uint8,uint256)": "041a72dd",
        "redeem()": "be040fb0",
        "registerUser(address,uint8,uint256[])": "cc8fea7e",
        "removeWhitelist(address)": "78c8cda7",
        "renounceOwnership()": "715018a6",
        "safeBatchTransferFrom(address,address,uint256[],uint256[],bytes)": "2eb2c2d6",
        "safeTransferFrom(address,address,uint256,uint256,bytes)": "f242432a",
        "setApprovalForAll(address,bool)": "a22cb465",
        "setBlackNFTUrl(string)": "1aeb113f",
        "setGoldNFTUrl(string)": "936b5604",
        "startTier(uint256)": "704bd93c",
        "supportsInterface(bytes4)": "01ffc9a7",
        "symbol()": "95d89b41",
        "tier1NFTCount(address)": "a2fd4b60",
        "tier2NFTCount(address)": "9b08f33c",
        "tierActiveStatus(uint256)": "df4f2f30",
        "tierDurations(uint256)": "40ea68b2",
        "tierStartTimes(uint256)": "7b287e2e",
        "tierWhitelist(address,uint256)": "e5365d63",
        "totalSupply()": "18160ddd",
        "transfer(address,uint256)": "a9059cbb",
        "transferFrom(address,address,uint256)": "23b872dd",
        "transferOwnership(address)": "f2fde38b",
        "uri(uint256)": "0e89341c",
        "userNFTs(address)": "d198ce6a",
        "whitelistCounter(address)": "05ce3c60",
        "whitelistUser(address)": "4a4c560d",
        "withdraw()": "3ccfd60b"
    },
    "gasEstimates": {
        "creation": {
            "codeDepositCost": "2447400",
            "executionCost": "infinite",
            "totalCost": "infinite"
        },
        "external": {
            "allowance(address,address)": "infinite",
            "approve(address,uint256)": "24758",
            "balanceOf(address)": "2572",
            "balanceOf(address,uint256)": "2683",
            "balanceOfBatch(address[],uint256[])": "infinite",
            "blackNFTUrl()": "infinite",
            "decimals()": "311",
            "endTier(uint256)": "26762",
            "goldNFTUrl()": "infinite",
            "isApprovedForAll(address,address)": "infinite",
            "isRegistered(address)": "2620",
            "isUserRegistered(address)": "2645",
            "mint(uint256)": "infinite",
            "name()": "infinite",
            "owner()": "2435",
            "purchaseNFT(uint8,uint256)": "infinite",
            "redeem()": "infinite",
            "registerUser(address,uint8,uint256[])": "infinite",
            "removeWhitelist(address)": "infinite",
            "renounceOwnership()": "infinite",
            "safeBatchTransferFrom(address,address,uint256[],uint256[],bytes)": "infinite",
            "safeTransferFrom(address,address,uint256,uint256,bytes)": "infinite",
            "setApprovalForAll(address,bool)": "26822",
            "setBlackNFTUrl(string)": "infinite",
            "setGoldNFTUrl(string)": "infinite",
            "startTier(uint256)": "51247",
            "supportsInterface(bytes4)": "601",
            "symbol()": "infinite",
            "tier1NFTCount(address)": "2663",
            "tier2NFTCount(address)": "2597",
            "tierActiveStatus(uint256)": "2516",
            "tierDurations(uint256)": "2494",
            "tierStartTimes(uint256)": "2539",
            "tierWhitelist(address,uint256)": "2712",
            "totalSupply()": "2415",
            "transfer(address,uint256)": "51254",
            "transferFrom(address,address,uint256)": "infinite",
            "transferOwnership(address)": "28490",
            "uri(uint256)": "infinite",
            "userNFTs(address)": "2739",
            "whitelistCounter(address)": "2621",
            "whitelistUser(address)": "infinite",
            "withdraw()": "infinite"
        },
        "internal": {
            "getCurrentStartedTier()": "infinite",
            "getNFTCountByType(address,enum NFTLocked.NFTType)": "2281",
            "getTotalNFTsPurchased(address)": "infinite"
        }
    }
}