{
    "contractName": "NFTLocked",
    "abi": [
        {
            "inputs": [
                {
                    "internalType": "string",
                    "name": "_goldNFTUrl",
                    "type": "string"
                },
                {
                    "internalType": "string",
                    "name": "_blackNFTUrl",
                    "type": "string"
                }
            ],
            "stateMutability": "nonpayable",
            "type": "constructor"
        },
        {
            "inputs": [
                {
                    "internalType": "address",
                    "name": "sender",
                    "type": "address"
                },
                {
                    "internalType": "uint256",
                    "name": "balance",
                    "type": "uint256"
                },
                {
                    "internalType": "uint256",
                    "name": "needed",
                    "type": "uint256"
                },
                {
                    "internalType": "uint256",
                    "name": "tokenId",
                    "type": "uint256"
                }
            ],
            "name": "ERC1155InsufficientBalance",
            "type": "error"
        },
        {
            "inputs": [
                {
                    "internalType": "address",
                    "name": "approver",
                    "type": "address"
                }
            ],
            "name": "ERC1155InvalidApprover",
            "type": "error"
        },
        {
            "inputs": [
                {
                    "internalType": "uint256",
                    "name": "idsLength",
                    "type": "uint256"
                },
                {
                    "internalType": "uint256",
                    "name": "valuesLength",
                    "type": "uint256"
                }
            ],
            "name": "ERC1155InvalidArrayLength",
            "type": "error"
        },
        {
            "inputs": [
                {
                    "internalType": "address",
                    "name": "operator",
                    "type": "address"
                }
            ],
            "name": "ERC1155InvalidOperator",
            "type": "error"
        },
        {
            "inputs": [
                {
                    "internalType": "address",
                    "name": "receiver",
                    "type": "address"
                }
            ],
            "name": "ERC1155InvalidReceiver",
            "type": "error"
        },
        {
            "inputs": [
                {
                    "internalType": "address",
                    "name": "sender",
                    "type": "address"
                }
            ],
            "name": "ERC1155InvalidSender",
            "type": "error"
        },
        {
            "inputs": [
                {
                    "internalType": "address",
                    "name": "operator",
                    "type": "address"
                },
                {
                    "internalType": "address",
                    "name": "owner",
                    "type": "address"
                }
            ],
            "name": "ERC1155MissingApprovalForAll",
            "type": "error"
        },
        {
            "inputs": [
                {
                    "internalType": "address",
                    "name": "spender",
                    "type": "address"
                },
                {
                    "internalType": "uint256",
                    "name": "allowance",
                    "type": "uint256"
                },
                {
                    "internalType": "uint256",
                    "name": "needed",
                    "type": "uint256"
                }
            ],
            "name": "ERC20InsufficientAllowance",
            "type": "error"
        },
        {
            "inputs": [
                {
                    "internalType": "address",
                    "name": "sender",
                    "type": "address"
                },
                {
                    "internalType": "uint256",
                    "name": "balance",
                    "type": "uint256"
                },
                {
                    "internalType": "uint256",
                    "name": "needed",
                    "type": "uint256"
                }
            ],
            "name": "ERC20InsufficientBalance",
            "type": "error"
        },
        {
            "inputs": [
                {
                    "internalType": "address",
                    "name": "approver",
                    "type": "address"
                }
            ],
            "name": "ERC20InvalidApprover",
            "type": "error"
        },
        {
            "inputs": [
                {
                    "internalType": "address",
                    "name": "receiver",
                    "type": "address"
                }
            ],
            "name": "ERC20InvalidReceiver",
            "type": "error"
        },
        {
            "inputs": [
                {
                    "internalType": "address",
                    "name": "sender",
                    "type": "address"
                }
            ],
            "name": "ERC20InvalidSender",
            "type": "error"
        },
        {
            "inputs": [
                {
                    "internalType": "address",
                    "name": "spender",
                    "type": "address"
                }
            ],
            "name": "ERC20InvalidSpender",
            "type": "error"
        },
        {
            "inputs": [
                {
                    "internalType": "address",
                    "name": "owner",
                    "type": "address"
                }
            ],
            "name": "OwnableInvalidOwner",
            "type": "error"
        },
        {
            "inputs": [
                {
                    "internalType": "address",
                    "name": "account",
                    "type": "address"
                }
            ],
            "name": "OwnableUnauthorizedAccount",
            "type": "error"
        },
        {
            "anonymous": false,
            "inputs": [
                {
                    "indexed": true,
                    "internalType": "address",
                    "name": "owner",
                    "type": "address"
                },
                {
                    "indexed": true,
                    "internalType": "address",
                    "name": "spender",
                    "type": "address"
                },
                {
                    "indexed": false,
                    "internalType": "uint256",
                    "name": "value",
                    "type": "uint256"
                }
            ],
            "name": "Approval",
            "type": "event"
        },
        {
            "anonymous": false,
            "inputs": [
                {
                    "indexed": true,
                    "internalType": "address",
                    "name": "account",
                    "type": "address"
                },
                {
                    "indexed": true,
                    "internalType": "address",
                    "name": "operator",
                    "type": "address"
                },
                {
                    "indexed": false,
                    "internalType": "bool",
                    "name": "approved",
                    "type": "bool"
                }
            ],
            "name": "ApprovalForAll",
            "type": "event"
        },
        {
            "anonymous": false,
            "inputs": [
                {
                    "indexed": true,
                    "internalType": "address",
                    "name": "previousOwner",
                    "type": "address"
                },
                {
                    "indexed": true,
                    "internalType": "address",
                    "name": "newOwner",
                    "type": "address"
                }
            ],
            "name": "OwnershipTransferred",
            "type": "event"
        },
        {
            "anonymous": false,
            "inputs": [
                {
                    "indexed": true,
                    "internalType": "address",
                    "name": "from",
                    "type": "address"
                },
                {
                    "indexed": true,
                    "internalType": "address",
                    "name": "to",
                    "type": "address"
                },
                {
                    "indexed": false,
                    "internalType": "uint256",
                    "name": "value",
                    "type": "uint256"
                }
            ],
            "name": "Transfer",
            "type": "event"
        },
        {
            "anonymous": false,
            "inputs": [
                {
                    "indexed": true,
                    "internalType": "address",
                    "name": "operator",
                    "type": "address"
                },
                {
                    "indexed": true,
                    "internalType": "address",
                    "name": "from",
                    "type": "address"
                },
                {
                    "indexed": true,
                    "internalType": "address",
                    "name": "to",
                    "type": "address"
                },
                {
                    "indexed": false,
                    "internalType": "uint256[]",
                    "name": "ids",
                    "type": "uint256[]"
                },
                {
                    "indexed": false,
                    "internalType": "uint256[]",
                    "name": "values",
                    "type": "uint256[]"
                }
            ],
            "name": "TransferBatch",
            "type": "event"
        },
        {
            "anonymous": false,
            "inputs": [
                {
                    "indexed": true,
                    "internalType": "address",
                    "name": "operator",
                    "type": "address"
                },
                {
                    "indexed": true,
                    "internalType": "address",
                    "name": "from",
                    "type": "address"
                },
                {
                    "indexed": true,
                    "internalType": "address",
                    "name": "to",
                    "type": "address"
                },
                {
                    "indexed": false,
                    "internalType": "uint256",
                    "name": "id",
                    "type": "uint256"
                },
                {
                    "indexed": false,
                    "internalType": "uint256",
                    "name": "value",
                    "type": "uint256"
                }
            ],
            "name": "TransferSingle",
            "type": "event"
        },
        {
            "anonymous": false,
            "inputs": [
                {
                    "indexed": false,
                    "internalType": "string",
                    "name": "value",
                    "type": "string"
                },
                {
                    "indexed": true,
                    "internalType": "uint256",
                    "name": "id",
                    "type": "uint256"
                }
            ],
            "name": "URI",
            "type": "event"
        },
        {
            "anonymous": false,
            "inputs": [
                {
                    "indexed": true,
                    "internalType": "address",
                    "name": "user",
                    "type": "address"
                },
                {
                    "indexed": false,
                    "internalType": "enum NFTLocked.NFTType",
                    "name": "nftType",
                    "type": "uint8"
                },
                {
                    "indexed": false,
                    "internalType": "uint256[]",
                    "name": "tier",
                    "type": "uint256[]"
                }
            ],
            "name": "UserRegistered",
            "type": "event"
        },
        {
            "inputs": [
                {
                    "internalType": "address",
                    "name": "owner",
                    "type": "address"
                },
                {
                    "internalType": "address",
                    "name": "spender",
                    "type": "address"
                }
            ],
            "name": "allowance",
            "outputs": [
                {
                    "internalType": "uint256",
                    "name": "",
                    "type": "uint256"
                }
            ],
            "stateMutability": "view",
            "type": "function"
        },
        {
            "inputs": [
                {
                    "internalType": "address",
                    "name": "spender",
                    "type": "address"
                },
                {
                    "internalType": "uint256",
                    "name": "value",
                    "type": "uint256"
                }
            ],
            "name": "approve",
            "outputs": [
                {
                    "internalType": "bool",
                    "name": "",
                    "type": "bool"
                }
            ],
            "stateMutability": "nonpayable",
            "type": "function"
        },
        {
            "inputs": [
                {
                    "internalType": "address",
                    "name": "account",
                    "type": "address"
                },
                {
                    "internalType": "uint256",
                    "name": "id",
                    "type": "uint256"
                }
            ],
            "name": "balanceOf",
            "outputs": [
                {
                    "internalType": "uint256",
                    "name": "",
                    "type": "uint256"
                }
            ],
            "stateMutability": "view",
            "type": "function"
        },
        {
            "inputs": [
                {
                    "internalType": "address",
                    "name": "account",
                    "type": "address"
                }
            ],
            "name": "balanceOf",
            "outputs": [
                {
                    "internalType": "uint256",
                    "name": "",
                    "type": "uint256"
                }
            ],
            "stateMutability": "view",
            "type": "function"
        },
        {
            "inputs": [
                {
                    "internalType": "address[]",
                    "name": "accounts",
                    "type": "address[]"
                },
                {
                    "internalType": "uint256[]",
                    "name": "ids",
                    "type": "uint256[]"
                }
            ],
            "name": "balanceOfBatch",
            "outputs": [
                {
                    "internalType": "uint256[]",
                    "name": "",
                    "type": "uint256[]"
                }
            ],
            "stateMutability": "view",
            "type": "function"
        },
        {
            "inputs": [],
            "name": "blackNFTUrl",
            "outputs": [
                {
                    "internalType": "string",
                    "name": "",
                    "type": "string"
                }
            ],
            "stateMutability": "view",
            "type": "function"
        },
        {
            "inputs": [],
            "name": "decimals",
            "outputs": [
                {
                    "internalType": "uint8",
                    "name": "",
                    "type": "uint8"
                }
            ],
            "stateMutability": "view",
            "type": "function"
        },
        {
            "inputs": [
                {
                    "internalType": "uint256",
                    "name": "tierId",
                    "type": "uint256"
                }
            ],
            "name": "endTier",
            "outputs": [],
            "stateMutability": "nonpayable",
            "type": "function"
        },
        {
            "inputs": [],
            "name": "goldNFTUrl",
            "outputs": [
                {
                    "internalType": "string",
                    "name": "",
                    "type": "string"
                }
            ],
            "stateMutability": "view",
            "type": "function"
        },
        {
            "inputs": [
                {
                    "internalType": "address",
                    "name": "account",
                    "type": "address"
                },
                {
                    "internalType": "address",
                    "name": "operator",
                    "type": "address"
                }
            ],
            "name": "isApprovedForAll",
            "outputs": [
                {
                    "internalType": "bool",
                    "name": "",
                    "type": "bool"
                }
            ],
            "stateMutability": "view",
            "type": "function"
        },
        {
            "inputs": [
                {
                    "internalType": "address",
                    "name": "",
                    "type": "address"
                }
            ],
            "name": "isRegistered",
            "outputs": [
                {
                    "internalType": "bool",
                    "name": "",
                    "type": "bool"
                }
            ],
            "stateMutability": "view",
            "type": "function"
        },
        {
            "inputs": [
                {
                    "internalType": "address",
                    "name": "_user",
                    "type": "address"
                }
            ],
            "name": "isUserRegistered",
            "outputs": [
                {
                    "internalType": "bool",
                    "name": "",
                    "type": "bool"
                }
            ],
            "stateMutability": "view",
            "type": "function"
        },
        {
            "inputs": [
                {
                    "internalType": "uint256",
                    "name": "amount",
                    "type": "uint256"
                }
            ],
            "name": "mint",
            "outputs": [],
            "stateMutability": "nonpayable",
            "type": "function"
        },
        {
            "inputs": [],
            "name": "name",
            "outputs": [
                {
                    "internalType": "string",
                    "name": "",
                    "type": "string"
                }
            ],
            "stateMutability": "view",
            "type": "function"
        },
        {
            "inputs": [],
            "name": "owner",
            "outputs": [
                {
                    "internalType": "address",
                    "name": "",
                    "type": "address"
                }
            ],
            "stateMutability": "view",
            "type": "function"
        },
        {
            "inputs": [
                {
                    "internalType": "enum NFTLocked.NFTType",
                    "name": "_nftType",
                    "type": "uint8"
                },
                {
                    "internalType": "uint256",
                    "name": "_amount",
                    "type": "uint256"
                }
            ],
            "name": "purchaseNFT",
            "outputs": [],
            "stateMutability": "payable",
            "type": "function"
        },
        {
            "inputs": [],
            "name": "redeem",
            "outputs": [],
            "stateMutability": "nonpayable",
            "type": "function"
        },
        {
            "inputs": [
                {
                    "internalType": "address",
                    "name": "_user",
                    "type": "address"
                },
                {
                    "internalType": "enum NFTLocked.NFTType",
                    "name": "_nftType",
                    "type": "uint8"
                },
                {
                    "internalType": "uint256[]",
                    "name": "_tier",
                    "type": "uint256[]"
                }
            ],
            "name": "registerUser",
            "outputs": [],
            "stateMutability": "nonpayable",
            "type": "function"
        },
        {
            "inputs": [
                {
                    "internalType": "address",
                    "name": "_user",
                    "type": "address"
                }
            ],
            "name": "removeWhitelist",
            "outputs": [],
            "stateMutability": "nonpayable",
            "type": "function"
        },
        {
            "inputs": [],
            "name": "renounceOwnership",
            "outputs": [],
            "stateMutability": "nonpayable",
            "type": "function"
        },
        {
            "inputs": [
                {
                    "internalType": "address",
                    "name": "from",
                    "type": "address"
                },
                {
                    "internalType": "address",
                    "name": "to",
                    "type": "address"
                },
                {
                    "internalType": "uint256[]",
                    "name": "ids",
                    "type": "uint256[]"
                },
                {
                    "internalType": "uint256[]",
                    "name": "values",
                    "type": "uint256[]"
                },
                {
                    "internalType": "bytes",
                    "name": "data",
                    "type": "bytes"
                }
            ],
            "name": "safeBatchTransferFrom",
            "outputs": [],
            "stateMutability": "nonpayable",
            "type": "function"
        },
        {
            "inputs": [
                {
                    "internalType": "address",
                    "name": "from",
                    "type": "address"
                },
                {
                    "internalType": "address",
                    "name": "to",
                    "type": "address"
                },
                {
                    "internalType": "uint256",
                    "name": "id",
                    "type": "uint256"
                },
                {
                    "internalType": "uint256",
                    "name": "value",
                    "type": "uint256"
                },
                {
                    "internalType": "bytes",
                    "name": "data",
                    "type": "bytes"
                }
            ],
            "name": "safeTransferFrom",
            "outputs": [],
            "stateMutability": "nonpayable",
            "type": "function"
        },
        {
            "inputs": [
                {
                    "internalType": "address",
                    "name": "operator",
                    "type": "address"
                },
                {
                    "internalType": "bool",
                    "name": "approved",
                    "type": "bool"
                }
            ],
            "name": "setApprovalForAll",
            "outputs": [],
            "stateMutability": "nonpayable",
            "type": "function"
        },
        {
            "inputs": [
                {
                    "internalType": "string",
                    "name": "_blackNFTUrl",
                    "type": "string"
                }
            ],
            "name": "setBlackNFTUrl",
            "outputs": [],
            "stateMutability": "nonpayable",
            "type": "function"
        },
        {
            "inputs": [
                {
                    "internalType": "string",
                    "name": "_goldNFTUrl",
                    "type": "string"
                }
            ],
            "name": "setGoldNFTUrl",
            "outputs": [],
            "stateMutability": "nonpayable",
            "type": "function"
        },
        {
            "inputs": [
                {
                    "internalType": "uint256",
                    "name": "_tier",
                    "type": "uint256"
                }
            ],
            "name": "startTier",
            "outputs": [],
            "stateMutability": "nonpayable",
            "type": "function"
        },
        {
            "inputs": [
                {
                    "internalType": "bytes4",
                    "name": "interfaceId",
                    "type": "bytes4"
                }
            ],
            "name": "supportsInterface",
            "outputs": [
                {
                    "internalType": "bool",
                    "name": "",
                    "type": "bool"
                }
            ],
            "stateMutability": "view",
            "type": "function"
        },
        {
            "inputs": [],
            "name": "symbol",
            "outputs": [
                {
                    "internalType": "string",
                    "name": "",
                    "type": "string"
                }
            ],
            "stateMutability": "view",
            "type": "function"
        },
        {
            "inputs": [
                {
                    "internalType": "address",
                    "name": "",
                    "type": "address"
                }
            ],
            "name": "tier1NFTCount",
            "outputs": [
                {
                    "internalType": "uint256",
                    "name": "",
                    "type": "uint256"
                }
            ],
            "stateMutability": "view",
            "type": "function"
        },
        {
            "inputs": [
                {
                    "internalType": "address",
                    "name": "",
                    "type": "address"
                }
            ],
            "name": "tier2NFTCount",
            "outputs": [
                {
                    "internalType": "uint256",
                    "name": "",
                    "type": "uint256"
                }
            ],
            "stateMutability": "view",
            "type": "function"
        },
        {
            "inputs": [
                {
                    "internalType": "uint256",
                    "name": "",
                    "type": "uint256"
                }
            ],
            "name": "tierActiveStatus",
            "outputs": [
                {
                    "internalType": "bool",
                    "name": "",
                    "type": "bool"
                }
            ],
            "stateMutability": "view",
            "type": "function"
        },
        {
            "inputs": [
                {
                    "internalType": "uint256",
                    "name": "",
                    "type": "uint256"
                }
            ],
            "name": "tierDurations",
            "outputs": [
                {
                    "internalType": "uint256",
                    "name": "",
                    "type": "uint256"
                }
            ],
            "stateMutability": "view",
            "type": "function"
        },
        {
            "inputs": [
                {
                    "internalType": "uint256",
                    "name": "",
                    "type": "uint256"
                }
            ],
            "name": "tierStartTimes",
            "outputs": [
                {
                    "internalType": "uint256",
                    "name": "",
                    "type": "uint256"
                }
            ],
            "stateMutability": "view",
            "type": "function"
        },
        {
            "inputs": [
                {
                    "internalType": "address",
                    "name": "",
                    "type": "address"
                },
                {
                    "internalType": "uint256",
                    "name": "",
                    "type": "uint256"
                }
            ],
            "name": "tierWhitelist",
            "outputs": [
                {
                    "internalType": "bool",
                    "name": "",
                    "type": "bool"
                }
            ],
            "stateMutability": "view",
            "type": "function"
        },
        {
            "inputs": [],
            "name": "totalSupply",
            "outputs": [
                {
                    "internalType": "uint256",
                    "name": "",
                    "type": "uint256"
                }
            ],
            "stateMutability": "view",
            "type": "function"
        },
        {
            "inputs": [
                {
                    "internalType": "address",
                    "name": "to",
                    "type": "address"
                },
                {
                    "internalType": "uint256",
                    "name": "value",
                    "type": "uint256"
                }
            ],
            "name": "transfer",
            "outputs": [
                {
                    "internalType": "bool",
                    "name": "",
                    "type": "bool"
                }
            ],
            "stateMutability": "nonpayable",
            "type": "function"
        },
        {
            "inputs": [
                {
                    "internalType": "address",
                    "name": "from",
                    "type": "address"
                },
                {
                    "internalType": "address",
                    "name": "to",
                    "type": "address"
                },
                {
                    "internalType": "uint256",
                    "name": "value",
                    "type": "uint256"
                }
            ],
            "name": "transferFrom",
            "outputs": [
                {
                    "internalType": "bool",
                    "name": "",
                    "type": "bool"
                }
            ],
            "stateMutability": "nonpayable",
            "type": "function"
        },
        {
            "inputs": [
                {
                    "internalType": "address",
                    "name": "newOwner",
                    "type": "address"
                }
            ],
            "name": "transferOwnership",
            "outputs": [],
            "stateMutability": "nonpayable",
            "type": "function"
        },
        {
            "inputs": [
                {
                    "internalType": "uint256",
                    "name": "",
                    "type": "uint256"
                }
            ],
            "name": "uri",
            "outputs": [
                {
                    "internalType": "string",
                    "name": "",
                    "type": "string"
                }
            ],
            "stateMutability": "view",
            "type": "function"
        },
        {
            "inputs": [
                {
                    "internalType": "address",
                    "name": "",
                    "type": "address"
                }
            ],
            "name": "userNFTs",
            "outputs": [
                {
                    "internalType": "enum NFTLocked.NFTType",
                    "name": "nftType",
                    "type": "uint8"
                }
            ],
            "stateMutability": "view",
            "type": "function"
        },
        {
            "inputs": [
                {
                    "internalType": "address",
                    "name": "",
                    "type": "address"
                }
            ],
            "name": "whitelistCounter",
            "outputs": [
                {
                    "internalType": "uint256",
                    "name": "",
                    "type": "uint256"
                }
            ],
            "stateMutability": "view",
            "type": "function"
        },
        {
            "inputs": [
                {
                    "internalType": "address",
                    "name": "_user",
                    "type": "address"
                }
            ],
            "name": "whitelistUser",
            "outputs": [],
            "stateMutability": "nonpayable",
            "type": "function"
        },
        {
            "inputs": [],
            "name": "withdraw",
            "outputs": [],
            "stateMutability": "nonpayable",
            "type": "function"
        }
    ],
    "bytecode": "6080604052601480546001600160a01b031916735e52dec931ffb32f609681b8438a51c675cc232d1790553480156200003757600080fd5b50604051620034b0380380620034b08339810160408190526200005a9162000324565b33604051806040016040528060098152602001682a32b9ba2a37b5b2b760b91b815250604051806040016040528060038152602001621514d560ea1b81525060405180602001604052806000815250620000ba81620001fb60201b60201c565b506006620000c983826200041d565b506007620000d882826200041d565b5050506001600160a01b0381166200010a57604051631e4fbdf760e01b81526000600482015260240160405180910390fd5b62000115816200020d565b5060126200012483826200041d565b5060136200013382826200041d565b5050600a602052506107087fbbc70db1b6c7afd11e79c0fb0051300458f1a3acb8ee9789d9b6b26c61ad9bc78190557fbff4442b8ed600beeb8e26b1279a0f0d14c6edfaec26d968ee13c86f7d4c2ba88190557fa856840544dc26124927add067d799967eac11be13e14d82cc281ea46fa397598190557fe1eb2b2161a492c07c5a334e48012567cba93ec021043f53c1955516a3c5a84181905560056000527ff35035bc2b01d44bd35a1dcdc552315cffb73da35cfd60570b7b777f98036f9f55620004e9565b60026200020982826200041d565b5050565b600880546001600160a01b038381166001600160a01b0319831681179093556040519116919082907f8be0079c531659141344cd1fd0a4f28419497f9722a3daafe3b4186f6b6457e090600090a35050565b634e487b7160e01b600052604160045260246000fd5b600082601f8301126200028757600080fd5b81516001600160401b0380821115620002a457620002a46200025f565b604051601f8301601f19908116603f01168101908282118183101715620002cf57620002cf6200025f565b81604052838152602092508683858801011115620002ec57600080fd5b600091505b83821015620003105785820183015181830184015290820190620002f1565b600093810190920192909252949350505050565b600080604083850312156200033857600080fd5b82516001600160401b03808211156200035057600080fd5b6200035e8683870162000275565b935060208501519150808211156200037557600080fd5b50620003848582860162000275565b9150509250929050565b600181811c90821680620003a357607f821691505b602082108103620003c457634e487b7160e01b600052602260045260246000fd5b50919050565b601f8211156200041857600081815260208120601f850160051c81016020861015620003f35750805b601f850160051c820191505b818110156200041457828155600101620003ff565b5050505b505050565b81516001600160401b038111156200043957620004396200025f565b62000451816200044a84546200038e565b84620003ca565b602080601f831160018114620004895760008415620004705750858301515b600019600386901b1c1916600185901b17855562000414565b600085815260208120601f198616915b82811015620004ba5788860151825594840194600190910190840162000499565b5085821015620004d95787850151600019600388901b60f8161c191681555b5050505050600190811b01905550565b612fb780620004f96000396000f3fe60806040526004361061025b5760003560e01c806370a0823111610144578063a9059cbb116100b6578063dd62ed3e1161007a578063dd62ed3e1461077d578063df4f2f30146107c3578063e5365d63146107f3578063e985e9c51461082e578063f242432a1461084e578063f2fde38b1461086e57600080fd5b8063a9059cbb146106bb578063be040fb0146106db578063c3c5a547146106f0578063cc8fea7e14610720578063d198ce6a1461074057600080fd5b8063936b560411610108578063936b5604146105ec57806395d89b411461060c5780639b08f33c14610621578063a0712d681461064e578063a22cb4651461066e578063a2fd4b601461068e57600080fd5b806370a082311461052c578063715018a61461056257806378c8cda7146105775780637b287e2e146105975780638da5cb5b146105c457600080fd5b80631aeb113f116101dd5780633ccfd60b116101a15780633ccfd60b1461046857806340ea68b21461047d5780634a4c560d146104aa5780634e1273f4146104ca5780636d641113146104f7578063704bd93c1461050c57600080fd5b80631aeb113f146103cc578063229acf9e146103ec57806323b872dd1461040c5780632eb2c2d61461042c578063313ce5671461044c57600080fd5b8063095ea7b311610224578063095ea7b3146103275780630e89341c14610347578063163f75221461036757806317b591cf146103a257806318160ddd146103b757600080fd5b8062fdd58e1461026057806301ffc9a714610293578063041a72dd146102c357806305ce3c60146102d857806306fdde0314610305575b600080fd5b34801561026c57600080fd5b5061028061027b36600461260e565b61088e565b6040519081526020015b60405180910390f35b34801561029f57600080fd5b506102b36102ae36600461264e565b6108b6565b604051901515815260200161028a565b6102d66102d1366004612681565b610906565b005b3480156102e457600080fd5b506102806102f336600461269d565b600b6020526000908152604090205481565b34801561031157600080fd5b5061031a610cb8565b60405161028a91906126fe565b34801561033357600080fd5b506102b361034236600461260e565b610d4a565b34801561035357600080fd5b5061031a610362366004612711565b610d62565b34801561037357600080fd5b506102b361038236600461269d565b6001600160a01b0316600090815260096020526040902060010154151590565b3480156103ae57600080fd5b5061031a610df6565b3480156103c357600080fd5b50600554610280565b3480156103d857600080fd5b506102d66103e736600461272a565b610e84565b3480156103f857600080fd5b506102d6610407366004612711565b610e9e565b34801561041857600080fd5b506102b361042736600461279c565b610f06565b34801561043857600080fd5b506102d661044736600461291e565b610f2a565b34801561045857600080fd5b506040516012815260200161028a565b34801561047457600080fd5b506102d6610f91565b34801561048957600080fd5b50610280610498366004612711565b600a6020526000908152604090205481565b3480156104b657600080fd5b506102d66104c536600461269d565b61101c565b3480156104d657600080fd5b506104ea6104e53660046129c8565b611128565b60405161028a9190612ac3565b34801561050357600080fd5b5061031a6111fd565b34801561051857600080fd5b506102d6610527366004612711565b61120a565b34801561053857600080fd5b5061028061054736600461269d565b6001600160a01b031660009081526003602052604090205490565b34801561056e57600080fd5b506102d66112da565b34801561058357600080fd5b506102d661059236600461269d565b6112ee565b3480156105a357600080fd5b506102806105b2366004612711565b600f6020526000908152604090205481565b3480156105d057600080fd5b506008546040516001600160a01b03909116815260200161028a565b3480156105f857600080fd5b506102d661060736600461272a565b611357565b34801561061857600080fd5b5061031a61136c565b34801561062d57600080fd5b5061028061063c36600461269d565b600e6020526000908152604090205481565b34801561065a57600080fd5b506102d6610669366004612711565b61137b565b34801561067a57600080fd5b506102d6610689366004612ae4565b611390565b34801561069a57600080fd5b506102806106a936600461269d565b600d6020526000908152604090205481565b3480156106c757600080fd5b506102b36106d636600461260e565b61139b565b3480156106e757600080fd5b506102d66113a9565b3480156106fc57600080fd5b506102b361070b36600461269d565b60106020526000908152604090205460ff1681565b34801561072c57600080fd5b506102d661073b366004612b1b565b611890565b34801561074c57600080fd5b5061077061075b36600461269d565b60096020526000908152604090205460ff1681565b60405161028a9190612bb1565b34801561078957600080fd5b50610280610798366004612bbf565b6001600160a01b03918216600090815260046020908152604080832093909416825291909152205490565b3480156107cf57600080fd5b506102b36107de366004612711565b60116020526000908152604090205460ff1681565b3480156107ff57600080fd5b506102b361080e36600461260e565b600c60209081526000928352604080842090915290825290205460ff1681565b34801561083a57600080fd5b506102b3610849366004612bbf565b611a00565b34801561085a57600080fd5b506102d6610869366004612bf2565b611a2e565b34801561087a57600080fd5b506102d661088936600461269d565b611a8d565b6000818152602081815260408083206001600160a01b03861684529091529020545b92915050565b60006001600160e01b03198216636cdb3d1360e11b14806108e757506001600160e01b031982166303a24d0760e21b145b806108b057506301ffc9a760e01b6001600160e01b03198316146108b0565b336000908152600960205260409020600101546109605760405162461bcd60e51b8152602060048201526013602482015272155cd95c881b9bdd081c9959da5cdd195c9959606a1b60448201526064015b60405180910390fd5b336000908152600b60205260409020546109b35760405162461bcd60e51b8152602060048201526014602482015273155cd95c881b9bdd081dda1a5d195b1a5cdd195960621b6044820152606401610957565b60006109bd611ac8565b905080600114806109ce5750806002145b610a1a5760405162461bcd60e51b815260206004820152601960248201527f496e76616c6964207469657220666f72207075726368617365000000000000006044820152606401610957565b60008111610a605760405162461bcd60e51b8152602060048201526013602482015272139bc81d1a595c881cdd185c9d1959081e595d606a1b6044820152606401610957565b60008181526011602052604090205460ff16610ab05760405162461bcd60e51b815260206004820152600f60248201526e54696572206e6f742061637469766560881b6044820152606401610957565b60008082600103610b28576000856002811115610acf57610acf612b79565b14610ae157662386f26fc10000610aea565b66470de4df8200005b336000908152600d60205260408120805466ffffffffffffff939093169450600593508692909190610b1d908490612c6d565b90915550610b909050565b6000856002811115610b3c57610b3c612b79565b14610b4e57662386f26fc10000610b57565b66470de4df8200005b336000908152600e60205260408120805466ffffffffffffff939093169450600393508692909190610b8a908490612c6d565b90915550505b6000610b9c8584612c80565b905080341015610be35760405162461bcd60e51b8152602060048201526012602482015271496e73756666696369656e742066756e647360701b6044820152606401610957565b6000610bef3388611b22565b905082610bfc8783612c6d565b1115610c435760405162461bcd60e51b8152602060048201526016602482015275141d5c98da185cd9481b1a5b5a5d081c995858da195960521b6044820152606401610957565b610c6f33886002811115610c5957610c59612b79565b8860405180602001604052806000815250611b7a565b81341115610caf57336108fc610c858434612c97565b6040518115909202916000818181858888f19350505050158015610cad573d6000803e3d6000fd5b505b50505050505050565b606060068054610cc790612caa565b80601f0160208091040260200160405190810160405280929190818152602001828054610cf390612caa565b8015610d405780601f10610d1557610100808354040283529160200191610d40565b820191906000526020600020905b815481529060010190602001808311610d2357829003601f168201915b5050505050905090565b600033610d58818585611bd7565b5060019392505050565b606060028054610d7190612caa565b80601f0160208091040260200160405190810160405280929190818152602001828054610d9d90612caa565b8015610dea5780601f10610dbf57610100808354040283529160200191610dea565b820191906000526020600020905b815481529060010190602001808311610dcd57829003601f168201915b50505050509050919050565b60128054610e0390612caa565b80601f0160208091040260200160405190810160405280929190818152602001828054610e2f90612caa565b8015610e7c5780601f10610e5157610100808354040283529160200191610e7c565b820191906000526020600020905b815481529060010190602001808311610e5f57829003601f168201915b505050505081565b610e8c611be4565b6013610e99828483612d24565b505050565b60008181526011602052604090205460ff16610eee5760405162461bcd60e51b815260206004820152600f60248201526e54696572206e6f742061637469766560881b6044820152606401610957565b6000908152601160205260409020805460ff19169055565b600033610f14858285611c11565b610f1f858585611c8f565b506001949350505050565b336001600160a01b0386168114801590610f4b5750610f498682611a00565b155b15610f7c5760405163711bec9160e11b81526001600160a01b03808316600483015287166024820152604401610957565b610f898686868686611cee565b505050505050565b610f99611be4565b4780610fde5760405162461bcd60e51b81526020600482015260146024820152734e6f2066756e647320746f20776974686472617760601b6044820152606401610957565b6008546040516001600160a01b039091169082156108fc029083906000818181858888f19350505050158015611018573d6000803e3d6000fd5b5050565b6001600160a01b03811660009081526009602090815260408083206001018054825181850281018501909352808352919290919083018282801561107f57602002820191906000526020600020905b81548152602001906001019080831161106b575b5050505050905060005b8151811015610e99576001600160a01b0383166000908152600c602052604081208351600192908590859081106110c2576110c2612de4565b60209081029190910181015182528181019290925260409081016000908120805460ff1916941515949094179093556001600160a01b0386168352600b909152812080549161111083612dfa565b9190505550808061112090612dfa565b915050611089565b606081518351146111595781518351604051635b05999160e01b815260048101929092526024820152604401610957565b6000835167ffffffffffffffff811115611175576111756127d8565b60405190808252806020026020018201604052801561119e578160200160208202803683370190505b50905060005b84518110156111f5576020808202860101516111c89060208084028701015161088e565b8282815181106111da576111da612de4565b60209081029190910101526111ee81612dfa565b90506111a4565b509392505050565b60138054610e0390612caa565b611212611be4565b60018110158015611224575060058111155b61125f5760405162461bcd60e51b815260206004820152600c60248201526b24b73b30b634b2103a34b2b960a11b6044820152606401610957565b6000818152600f6020526040902054156112b25760405162461bcd60e51b8152602060048201526014602482015273151a595c88185b1c9958591e481cdd185c9d195960621b6044820152606401610957565b6000908152600f6020908152604080832042905560119091529020805460ff19166001179055565b6112e2611be4565b6112ec6000611d55565b565b6112f6611be4565b6001600160a01b0381166000908152600b602052604081205560015b60058111611018576001600160a01b0382166000908152600c602090815260408083208484529091529020805460ff191690558061134f81612dfa565b915050611312565b61135f611be4565b6012610e99828483612d24565b606060078054610cc790612caa565b611383611be4565b61138d3382611da7565b50565b611018338383611ddd565b600033610d58818585611c8f565b60006113b3611ac8565b9050600381101580156113c7575060058111155b6114135760405162461bcd60e51b815260206004820152601b60248201527f496e76616c6964207469657220666f7220726564656d7074696f6e00000000006044820152606401610957565b3360009081526009602052604080822081518083019092528054829060ff16600281111561144357611443612b79565b600281111561145457611454612b79565b8152602001600182018054806020026020016040519081016040528092919081815260200182805480156114a757602002820191906000526020600020905b815481526020019060010190808311611493575b505050505081525050905060008060028111156114c6576114c6612b79565b825160028111156114d9576114d9612b79565b146114e55760326114e8565b60645b60ff16905060006114f833611e74565b905060006064611509846032612c80565b6115139190612e13565b90506000606461152485600a612c80565b61152e9190612e13565b90506000606461153f866028612c80565b6115499190612e13565b9050600060035b888110156115ee576000818152600f602052604081205490036115dc57806003036115865761157f8583612c6d565b91506115dc565b806004036115dc5760036000908152600f6020527f45f76dafbbad695564362934e24d72eedc57f9fc1a65f39bca62176cc82968285490036115cf576115cc8583612c6d565b91505b6115d98483612c6d565b91505b806115e681612dfa565b915050611550565b506000886003036116005750836116dd565b886004036116505760036000908152600f6020527f45f76dafbbad695564362934e24d72eedc57f9fc1a65f39bca62176cc829682854900361163f5750835b6116498482612c6d565b90506116dd565b886005036116dd5760036000908152600f6020527f45f76dafbbad695564362934e24d72eedc57f9fc1a65f39bca62176cc8296828549003611699576116968583612c6d565b91505b60046000908152600f6020527f367ccd2d0ac16bf7110a5dffe0801fdc9452a95a1adb7e1a12fe97dd3e9a4edd5490036116da576116d78483612c6d565b91505b50815b6116e78282612c6d565b9050600060646116f78989612c80565b6117019190612e13565b9050600060646117118484612c80565b61171b9190612e13565b60145490915081906001600160a01b03166370a082316117436008546001600160a01b031690565b6040516001600160e01b031960e084901b1681526001600160a01b039091166004820152602401602060405180830381865afa158015611787573d6000803e3d6000fd5b505050506040513d601f19601f820116820180604052508101906117ab9190612e35565b101561180d5760405162461bcd60e51b815260206004820152602b60248201527f496e73756666696369656e74205453542062616c616e636520696e206f776e6560448201526a1c89dcc81858d8dbdd5b9d60aa1b6064820152608401610957565b60145460405163a9059cbb60e01b8152336004820152602481018390526001600160a01b039091169063a9059cbb906044016020604051808303816000875af115801561185e573d6000803e3d6000fd5b505050506040513d601f19601f820116820180604052508101906118829190612e4e565b505050505050505050505050565b6001600160a01b038316600090815260096020526040902060010154156118f95760405162461bcd60e51b815260206004820152601760248201527f5573657220616c726561647920726567697374657265640000000000000000006044820152606401610957565b60028151111561193a5760405162461bcd60e51b815260206004820152600c60248201526b24b73b30b634b2103a34b2b960a11b6044820152606401610957565b604051806040016040528083600281111561195757611957612b79565b815260209081018390526001600160a01b038516600090815260099091526040902081518154829060ff1916600183600281111561199757611997612b79565b021790555060208281015180516119b49260018501920190612592565b50905050826001600160a01b03167fceed638d834965f3e4c92cc251346928bf9d207bcce6d1b4d6ce8ac19c15b2ad83836040516119f3929190612e6b565b60405180910390a2505050565b6001600160a01b03918216600090815260016020908152604080832093909416825291909152205460ff1690565b336001600160a01b0386168114801590611a4f5750611a4d8682611a00565b155b15611a805760405163711bec9160e11b81526001600160a01b03808316600483015287166024820152604401610957565b610f898686868686611ea2565b611a95611be4565b6001600160a01b038116611abf57604051631e4fbdf760e01b815260006004820152602401610957565b61138d81611d55565b60008060015b60058111611b1c576000818152600f602052604090205415801590611b01575060008181526011602052604090205460ff165b15611b0a578091505b80611b1481612dfa565b915050611ace565b50919050565b600080826002811115611b3757611b37612b79565b03611b5b57506001600160a01b0382166000908152600d60205260409020546108b0565b506001600160a01b0382166000908152600e60205260409020546108b0565b6001600160a01b038416611ba457604051632bfa23e760e11b815260006004820152602401610957565b60408051600180825260208201869052818301908152606082018590526080820190925290610f89600087848487611f23565b610e998383836001611f76565b6008546001600160a01b031633146112ec5760405163118cdaa760e01b8152336004820152602401610957565b6001600160a01b038381166000908152600460209081526040808320938616835292905220546000198114611c895781811015611c7a57604051637dc7a0d960e11b81526001600160a01b03841660048201526024810182905260448101839052606401610957565b611c8984848484036000611f76565b50505050565b6001600160a01b038316611cb957604051634b637e8f60e11b815260006004820152602401610957565b6001600160a01b038216611ce35760405163ec442f0560e01b815260006004820152602401610957565b610e9983838361204b565b6001600160a01b038416611d1857604051632bfa23e760e11b815260006004820152602401610957565b6001600160a01b038516611d4157604051626a0d4560e21b815260006004820152602401610957565b611d4e8585858585611f23565b5050505050565b600880546001600160a01b038381166001600160a01b0319831681179093556040519116919082907f8be0079c531659141344cd1fd0a4f28419497f9722a3daafe3b4186f6b6457e090600090a35050565b6001600160a01b038216611dd15760405163ec442f0560e01b815260006004820152602401610957565b6110186000838361204b565b6001600160a01b038216611e065760405162ced3e160e81b815260006004820152602401610957565b6001600160a01b03838116600081815260016020908152604080832094871680845294825291829020805460ff191686151590811790915591519182527f17307eab39ab6107e8899845ad3d59bd9653f200f220920489ca2b5937696c3191015b60405180910390a3505050565b6001600160a01b0381166000908152600e6020908152604080832054600d9092528220546108b09190612c6d565b6001600160a01b038416611ecc57604051632bfa23e760e11b815260006004820152602401610957565b6001600160a01b038516611ef557604051626a0d4560e21b815260006004820152602401610957565b60408051600180825260208201869052818301908152606082018590526080820190925290610caf87878484875b611f2f85858585612168565b6001600160a01b03841615611d4e5782513390600103611f685760208481015190840151611f61838989858589612385565b5050610f89565b610f898187878787876124a9565b6001600160a01b038416611fa05760405163e602df0560e01b815260006004820152602401610957565b6001600160a01b038316611fca57604051634a1406b160e11b815260006004820152602401610957565b6001600160a01b0380851660009081526004602090815260408083209387168352929052208290558015611c8957826001600160a01b0316846001600160a01b03167f8c5be1e5ebec7d5bd14f71427d1e84f3dd0314c0f7b2291e5b200ac8c7c3b9258460405161203d91815260200190565b60405180910390a350505050565b6001600160a01b03831661207657806005600082825461206b9190612c6d565b909155506120e89050565b6001600160a01b038316600090815260036020526040902054818110156120c95760405163391434e360e21b81526001600160a01b03851660048201526024810182905260448101839052606401610957565b6001600160a01b03841660009081526003602052604090209082900390555b6001600160a01b03821661210457600580548290039055612123565b6001600160a01b03821660009081526003602052604090208054820190555b816001600160a01b0316836001600160a01b03167fddf252ad1be2c89b69c2b068fc378daa952ba7f163c4a11628f55a4df523b3ef83604051611e6791815260200190565b80518251146121975781518151604051635b05999160e01b815260048101929092526024820152604401610957565b3360005b83518110156122a6576020818102858101820151908501909101516001600160a01b0388161561224e576000828152602081815260408083206001600160a01b038c16845290915290205481811015612227576040516303dee4c560e01b81526001600160a01b038a166004820152602481018290526044810183905260648101849052608401610957565b6000838152602081815260408083206001600160a01b038d16845290915290209082900390555b6001600160a01b03871615612293576000828152602081815260408083206001600160a01b038b1684529091528120805483929061228d908490612c6d565b90915550505b50508061229f90612dfa565b905061219b565b5082516001036123275760208301516000906020840151909150856001600160a01b0316876001600160a01b0316846001600160a01b03167fc3d58168c5ae7397731d063d5bbf3d657854427343f4c083240f7aacaa2d0f628585604051612318929190918252602082015260400190565b60405180910390a45050611d4e565b836001600160a01b0316856001600160a01b0316826001600160a01b03167f4a39dc06d4c0dbc64b70af90fd698a233a518aa5d07e595d983b8c0526c8f7fb8686604051612376929190612e93565b60405180910390a45050505050565b6001600160a01b0384163b15610f895760405163f23a6e6160e01b81526001600160a01b0385169063f23a6e61906123c99089908990889088908890600401612ec1565b6020604051808303816000875af1925050508015612404575060408051601f3d908101601f1916820190925261240191810190612f06565b60015b61246d573d808015612432576040519150601f19603f3d011682016040523d82523d6000602084013e612437565b606091505b50805160000361246557604051632bfa23e760e11b81526001600160a01b0386166004820152602401610957565b805181602001fd5b6001600160e01b0319811663f23a6e6160e01b14610caf57604051632bfa23e760e11b81526001600160a01b0386166004820152602401610957565b6001600160a01b0384163b15610f895760405163bc197c8160e01b81526001600160a01b0385169063bc197c81906124ed9089908990889088908890600401612f23565b6020604051808303816000875af1925050508015612528575060408051601f3d908101601f1916820190925261252591810190612f06565b60015b612556573d808015612432576040519150601f19603f3d011682016040523d82523d6000602084013e612437565b6001600160e01b0319811663bc197c8160e01b14610caf57604051632bfa23e760e11b81526001600160a01b0386166004820152602401610957565b8280548282559060005260206000209081019282156125cd579160200282015b828111156125cd5782518255916020019190600101906125b2565b506125d99291506125dd565b5090565b5b808211156125d957600081556001016125de565b80356001600160a01b038116811461260957600080fd5b919050565b6000806040838503121561262157600080fd5b61262a836125f2565b946020939093013593505050565b6001600160e01b03198116811461138d57600080fd5b60006020828403121561266057600080fd5b813561266b81612638565b9392505050565b80356003811061260957600080fd5b6000806040838503121561269457600080fd5b61262a83612672565b6000602082840312156126af57600080fd5b61266b826125f2565b6000815180845260005b818110156126de576020818501810151868301820152016126c2565b506000602082860101526020601f19601f83011685010191505092915050565b60208152600061266b60208301846126b8565b60006020828403121561272357600080fd5b5035919050565b6000806020838503121561273d57600080fd5b823567ffffffffffffffff8082111561275557600080fd5b818501915085601f83011261276957600080fd5b81358181111561277857600080fd5b86602082850101111561278a57600080fd5b60209290920196919550909350505050565b6000806000606084860312156127b157600080fd5b6127ba846125f2565b92506127c8602085016125f2565b9150604084013590509250925092565b634e487b7160e01b600052604160045260246000fd5b604051601f8201601f1916810167ffffffffffffffff81118282101715612817576128176127d8565b604052919050565b600067ffffffffffffffff821115612839576128396127d8565b5060051b60200190565b600082601f83011261285457600080fd5b813560206128696128648361281f565b6127ee565b82815260059290921b8401810191818101908684111561288857600080fd5b8286015b848110156128a3578035835291830191830161288c565b509695505050505050565b600082601f8301126128bf57600080fd5b813567ffffffffffffffff8111156128d9576128d96127d8565b6128ec601f8201601f19166020016127ee565b81815284602083860101111561290157600080fd5b816020850160208301376000918101602001919091529392505050565b600080600080600060a0868803121561293657600080fd5b61293f866125f2565b945061294d602087016125f2565b9350604086013567ffffffffffffffff8082111561296a57600080fd5b61297689838a01612843565b9450606088013591508082111561298c57600080fd5b61299889838a01612843565b935060808801359150808211156129ae57600080fd5b506129bb888289016128ae565b9150509295509295909350565b600080604083850312156129db57600080fd5b823567ffffffffffffffff808211156129f357600080fd5b818501915085601f830112612a0757600080fd5b81356020612a176128648361281f565b82815260059290921b84018101918181019089841115612a3657600080fd5b948201945b83861015612a5b57612a4c866125f2565b82529482019490820190612a3b565b96505086013592505080821115612a7157600080fd5b50612a7e85828601612843565b9150509250929050565b600081518084526020808501945080840160005b83811015612ab857815187529582019590820190600101612a9c565b509495945050505050565b60208152600061266b6020830184612a88565b801515811461138d57600080fd5b60008060408385031215612af757600080fd5b612b00836125f2565b91506020830135612b1081612ad6565b809150509250929050565b600080600060608486031215612b3057600080fd5b612b39846125f2565b9250612b4760208501612672565b9150604084013567ffffffffffffffff811115612b6357600080fd5b612b6f86828701612843565b9150509250925092565b634e487b7160e01b600052602160045260246000fd5b60038110612bad57634e487b7160e01b600052602160045260246000fd5b9052565b602081016108b08284612b8f565b60008060408385031215612bd257600080fd5b612bdb836125f2565b9150612be9602084016125f2565b90509250929050565b600080600080600060a08688031215612c0a57600080fd5b612c13866125f2565b9450612c21602087016125f2565b93506040860135925060608601359150608086013567ffffffffffffffff811115612c4b57600080fd5b6129bb888289016128ae565b634e487b7160e01b600052601160045260246000fd5b808201808211156108b0576108b0612c57565b80820281158282048414176108b0576108b0612c57565b818103818111156108b0576108b0612c57565b600181811c90821680612cbe57607f821691505b602082108103611b1c57634e487b7160e01b600052602260045260246000fd5b601f821115610e9957600081815260208120601f850160051c81016020861015612d055750805b601f850160051c820191505b81811015610f8957828155600101612d11565b67ffffffffffffffff831115612d3c57612d3c6127d8565b612d5083612d4a8354612caa565b83612cde565b6000601f841160018114612d845760008515612d6c5750838201355b600019600387901b1c1916600186901b178355611d4e565b600083815260209020601f19861690835b82811015612db55786850135825560209485019460019092019101612d95565b5086821015612dd25760001960f88860031b161c19848701351681555b505060018560011b0183555050505050565b634e487b7160e01b600052603260045260246000fd5b600060018201612e0c57612e0c612c57565b5060010190565b600082612e3057634e487b7160e01b600052601260045260246000fd5b500490565b600060208284031215612e4757600080fd5b5051919050565b600060208284031215612e6057600080fd5b815161266b81612ad6565b612e758184612b8f565b604060208201526000612e8b6040830184612a88565b949350505050565b604081526000612ea66040830185612a88565b8281036020840152612eb88185612a88565b95945050505050565b6001600160a01b03868116825285166020820152604081018490526060810183905260a060808201819052600090612efb908301846126b8565b979650505050505050565b600060208284031215612f1857600080fd5b815161266b81612638565b6001600160a01b0386811682528516602082015260a060408201819052600090612f4f90830186612a88565b8281036060840152612f618186612a88565b90508281036080840152612f7581856126b8565b9897505050505050505056fea26469706673582212209aae4ac8aacd0fa433d6803888a43d71aa1c91d2ce7092678080086150a9ae1964736f6c63430008130033",
    "sourcePath": "/home/webclues/Pragati_Workspace/ERC1155/Nft/src/NFT.sol",
    "compiler": {
        "name": "solc",
        "version": "0.8.19+commit.7dd6d404"
    },
    "functionHashes": {
        "allowance(address,address)": "dd62ed3e",
        "approve(address,uint256)": "095ea7b3",
        "balanceOf(address)": "70a08231",
        "balanceOf(address,uint256)": "00fdd58e",
        "balanceOfBatch(address[],uint256[])": "4e1273f4",
        "blackNFTUrl()": "6d641113",
        "decimals()": "313ce567",
        "endTier(uint256)": "229acf9e",
        "goldNFTUrl()": "17b591cf",
        "isApprovedForAll(address,address)": "e985e9c5",
        "isRegistered(address)": "c3c5a547",
        "isUserRegistered(address)": "163f7522",
        "mint(uint256)": "a0712d68",
        "name()": "06fdde03",
        "owner()": "8da5cb5b",
        "purchaseNFT(uint8,uint256)": "041a72dd",
        "redeem()": "be040fb0",
        "registerUser(address,uint8,uint256[])": "cc8fea7e",
        "removeWhitelist(address)": "78c8cda7",
        "renounceOwnership()": "715018a6",
        "safeBatchTransferFrom(address,address,uint256[],uint256[],bytes)": "2eb2c2d6",
        "safeTransferFrom(address,address,uint256,uint256,bytes)": "f242432a",
        "setApprovalForAll(address,bool)": "a22cb465",
        "setBlackNFTUrl(string)": "1aeb113f",
        "setGoldNFTUrl(string)": "936b5604",
        "startTier(uint256)": "704bd93c",
        "supportsInterface(bytes4)": "01ffc9a7",
        "symbol()": "95d89b41",
        "tier1NFTCount(address)": "a2fd4b60",
        "tier2NFTCount(address)": "9b08f33c",
        "tierActiveStatus(uint256)": "df4f2f30",
        "tierDurations(uint256)": "40ea68b2",
        "tierStartTimes(uint256)": "7b287e2e",
        "tierWhitelist(address,uint256)": "e5365d63",
        "totalSupply()": "18160ddd",
        "transfer(address,uint256)": "a9059cbb",
        "transferFrom(address,address,uint256)": "23b872dd",
        "transferOwnership(address)": "f2fde38b",
        "uri(uint256)": "0e89341c",
        "userNFTs(address)": "d198ce6a",
        "whitelistCounter(address)": "05ce3c60",
        "whitelistUser(address)": "4a4c560d",
        "withdraw()": "3ccfd60b"
    },
    "gasEstimates": {
        "creation": {
            "codeDepositCost": "2443000",
            "executionCost": "infinite",
            "totalCost": "infinite"
        },
        "external": {
            "allowance(address,address)": "infinite",
            "approve(address,uint256)": "24758",
            "balanceOf(address)": "2572",
            "balanceOf(address,uint256)": "2683",
            "balanceOfBatch(address[],uint256[])": "infinite",
            "blackNFTUrl()": "infinite",
            "decimals()": "311",
            "endTier(uint256)": "26762",
            "goldNFTUrl()": "infinite",
            "isApprovedForAll(address,address)": "infinite",
            "isRegistered(address)": "2620",
            "isUserRegistered(address)": "2645",
            "mint(uint256)": "53156",
            "name()": "infinite",
            "owner()": "2435",
            "purchaseNFT(uint8,uint256)": "infinite",
            "redeem()": "infinite",
            "registerUser(address,uint8,uint256[])": "infinite",
            "removeWhitelist(address)": "infinite",
            "renounceOwnership()": "infinite",
            "safeBatchTransferFrom(address,address,uint256[],uint256[],bytes)": "infinite",
            "safeTransferFrom(address,address,uint256,uint256,bytes)": "infinite",
            "setApprovalForAll(address,bool)": "26822",
            "setBlackNFTUrl(string)": "infinite",
            "setGoldNFTUrl(string)": "infinite",
            "startTier(uint256)": "51247",
            "supportsInterface(bytes4)": "601",
            "symbol()": "infinite",
            "tier1NFTCount(address)": "2663",
            "tier2NFTCount(address)": "2597",
            "tierActiveStatus(uint256)": "2516",
            "tierDurations(uint256)": "2494",
            "tierStartTimes(uint256)": "2539",
            "tierWhitelist(address,uint256)": "2712",
            "totalSupply()": "2415",
            "transfer(address,uint256)": "51254",
            "transferFrom(address,address,uint256)": "infinite",
            "transferOwnership(address)": "28490",
            "uri(uint256)": "infinite",
            "userNFTs(address)": "2739",
            "whitelistCounter(address)": "2621",
            "whitelistUser(address)": "infinite",
            "withdraw()": "infinite"
        },
        "internal": {
            "getCurrentStartedTier()": "infinite",
            "getNFTCountByType(address,enum NFTLocked.NFTType)": "2281",
            "getTotalNFTsPurchased(address)": "infinite"
        }
    }
}